{
    "CALLCODEIdentity_5_d0g0v0_EIP150" : {
        "blocks" : [
            {
                "blockHeader" : {
                    "bloom" : "0x00000000000000000000000000000000000000000000000000000000000000000000000000000000000000000000000000000000000000000000000000000000000000000000000000000000000000000000000000000000000000000000000000000000000000000000000000000000000000000000000000000000000000000000000000000000000000000000000000000000000000000000000000000000000000000000000000000000000000000000000000000000000000000000000000000000000000000000000000000000000000000000000000000000000000000000000000000000000000000000000000000000000000000000000000000000",
                    "coinbase" : "0x2adc25665018aa1fe0e6bc666dac8fc2697ff9ba",
                    "difficulty" : "0x020000",
                    "extraData" : "",
                    "gasLimit" : "0x989680",
                    "gasUsed" : "0x1f41b8",
                    "hash" : "0x48ec510b145b621bce21fa4f490a8eb93bb5ab7ad53fd3d2f601bed1cd656cbd",
                    "mixHash" : "0x1396d4c93214b4c363e6ea42754c2696c7d1a6be0803a9940cd226bca713c062",
                    "nonce" : "0x185f8a79fe1d5ef3",
                    "number" : "0x01",
                    "parentHash" : "0xfe43c39ff7fabc7ad1a68bc8baee032f8f2b97691e888c4dd799ea23805c4ff9",
                    "receiptTrie" : "0xa063480326f8d3e0953a9cdc6b54e78f18c11c8b908bd27bffb425d7ce2e59f2",
                    "stateRoot" : "0x4a102822a75812053bdb3a3ba592efd59a91738563482343260e1d969e17640b",
                    "timestamp" : "0x03e8",
                    "transactionsTrie" : "0x138e622ff34e8a4bed7c2631ee946b094d23bd208e8285e710fc5fa254318627",
                    "uncleHash" : "0x1dcc4de8dec75d7aab85b567b6ccd41ad312451b948a7413f0a142fd40d49347"
                },
                "rlp" : "0xf90263f901f8a0fe43c39ff7fabc7ad1a68bc8baee032f8f2b97691e888c4dd799ea23805c4ff9a01dcc4de8dec75d7aab85b567b6ccd41ad312451b948a7413f0a142fd40d49347942adc25665018aa1fe0e6bc666dac8fc2697ff9baa04a102822a75812053bdb3a3ba592efd59a91738563482343260e1d969e17640ba0138e622ff34e8a4bed7c2631ee946b094d23bd208e8285e710fc5fa254318627a0a063480326f8d3e0953a9cdc6b54e78f18c11c8b908bd27bffb425d7ce2e59f2b9010000000000000000000000000000000000000000000000000000000000000000000000000000000000000000000000000000000000000000000000000000000000000000000000000000000000000000000000000000000000000000000000000000000000000000000000000000000000000000000000000000000000000000000000000000000000000000000000000000000000000000000000000000000000000000000000000000000000000000000000000000000000000000000000000000000000000000000000000000000000000000000000000000000000000000000000000000000000000000000000000000000000000000000000000000000000830200000183989680831f41b88203e880a01396d4c93214b4c363e6ea42754c2696c7d1a6be0803a9940cd226bca713c06288185f8a79fe1d5ef3f865f86380018398968094095e7baea6a6c7c4c2dfeb977efac326af552d87830186a0801ca0c8c5469bcab2d89c9083cecdf26c9d3a9e40597d1d82744bc0e5e582f9dc48a4a0433eb07127e317522d4e08b89cd3824eee8bf1c75a2871db940e0c54d0dd09d2c0",
                "transactions" : [
                    {
                        "data" : "",
                        "gasLimit" : "0x989680",
                        "gasPrice" : "0x01",
                        "nonce" : "0x00",
                        "r" : "0xc8c5469bcab2d89c9083cecdf26c9d3a9e40597d1d82744bc0e5e582f9dc48a4",
                        "s" : "0x433eb07127e317522d4e08b89cd3824eee8bf1c75a2871db940e0c54d0dd09d2",
                        "to" : "0x095e7baea6a6c7c4c2dfeb977efac326af552d87",
                        "v" : "0x1c",
                        "value" : "0x0186a0"
                    }
                ],
                "uncleHeaders" : [
                ]
            }
        ],
        "genesisBlockHeader" : {
            "bloom" : "0x00000000000000000000000000000000000000000000000000000000000000000000000000000000000000000000000000000000000000000000000000000000000000000000000000000000000000000000000000000000000000000000000000000000000000000000000000000000000000000000000000000000000000000000000000000000000000000000000000000000000000000000000000000000000000000000000000000000000000000000000000000000000000000000000000000000000000000000000000000000000000000000000000000000000000000000000000000000000000000000000000000000000000000000000000000000",
            "coinbase" : "0x2adc25665018aa1fe0e6bc666dac8fc2697ff9ba",
            "difficulty" : "0x020000",
            "extraData" : "0x42",
            "gasLimit" : "0x989680",
            "gasUsed" : "0x00",
            "hash" : "0xfe43c39ff7fabc7ad1a68bc8baee032f8f2b97691e888c4dd799ea23805c4ff9",
            "mixHash" : "0x56e81f171bcc55a6ff8345e692c0f86e5b48e01b996cadc001622fb5e363b421",
            "nonce" : "0x0102030405060708",
            "number" : "0x00",
            "parentHash" : "0x0000000000000000000000000000000000000000000000000000000000000000",
            "receiptTrie" : "0x56e81f171bcc55a6ff8345e692c0f86e5b48e01b996cadc001622fb5e363b421",
            "stateRoot" : "0xd357e55fdb5d62b4ec83c89c0d74ca848029b9cbb1604078860eaa952571732a",
            "timestamp" : "0x03b6",
            "transactionsTrie" : "0x56e81f171bcc55a6ff8345e692c0f86e5b48e01b996cadc001622fb5e363b421",
            "uncleHash" : "0x1dcc4de8dec75d7aab85b567b6ccd41ad312451b948a7413f0a142fd40d49347"
        },
        "genesisRLP" : "0xf901faf901f5a00000000000000000000000000000000000000000000000000000000000000000a01dcc4de8dec75d7aab85b567b6ccd41ad312451b948a7413f0a142fd40d49347942adc25665018aa1fe0e6bc666dac8fc2697ff9baa0d357e55fdb5d62b4ec83c89c0d74ca848029b9cbb1604078860eaa952571732aa056e81f171bcc55a6ff8345e692c0f86e5b48e01b996cadc001622fb5e363b421a056e81f171bcc55a6ff8345e692c0f86e5b48e01b996cadc001622fb5e363b421b9010000000000000000000000000000000000000000000000000000000000000000000000000000000000000000000000000000000000000000000000000000000000000000000000000000000000000000000000000000000000000000000000000000000000000000000000000000000000000000000000000000000000000000000000000000000000000000000000000000000000000000000000000000000000000000000000000000000000000000000000000000000000000000000000000000000000000000000000000000000000000000000000000000000000000000000000000000000000000000000000000000000000000000000000000000000000830200008083989680808203b642a056e81f171bcc55a6ff8345e692c0f86e5b48e01b996cadc001622fb5e363b421880102030405060708c0c0",
        "lastblockhash" : "0x48ec510b145b621bce21fa4f490a8eb93bb5ab7ad53fd3d2f601bed1cd656cbd",
        "network" : "EIP150",
        "postState" : {
            "0x095e7baea6a6c7c4c2dfeb977efac326af552d87" : {
                "balance" : "0x0132b3a0",
                "code" : "0x7fffffffffffffffffffffffffffffffffffffffffffffffffffffffffffffffff60005260206000620f4240600060006004610258f2600255600051600055",
                "nonce" : "0x00",
                "storage" : {
                    "0x00" : "0xffffffffffffffffffffffffffffffffffffffffffffffffffffffffffffffff"
                }
            },
            "0x2adc25665018aa1fe0e6bc666dac8fc2697ff9ba" : {
                "balance" : "0x45639182451341b8",
                "code" : "",
                "nonce" : "0x00",
                "storage" : {
                }
            },
            "0xa94f5374fce5edbc8e2a8697c15331677e6ebf0b" : {
                "balance" : "0x0de0b6b3a74337a8",
                "code" : "",
                "nonce" : "0x01",
                "storage" : {
                }
            }
        },
        "pre" : {
            "0x095e7baea6a6c7c4c2dfeb977efac326af552d87" : {
                "balance" : "0x01312d00",
                "code" : "0x7fffffffffffffffffffffffffffffffffffffffffffffffffffffffffffffffff60005260206000620f4240600060006004610258f2600255600051600055",
                "nonce" : "0x00",
                "storage" : {
                }
            },
            "0xa94f5374fce5edbc8e2a8697c15331677e6ebf0b" : {
                "balance" : "0x0de0b6b3a7640000",
                "code" : "",
                "nonce" : "0x00",
                "storage" : {
                }
            }
        }
    },
    "CALLCODEIdentity_5_d0g0v0_EIP158" : {
        "blocks" : [
            {
                "blockHeader" : {
                    "bloom" : "0x00000000000000000000000000000000000000000000000000000000000000000000000000000000000000000000000000000000000000000000000000000000000000000000000000000000000000000000000000000000000000000000000000000000000000000000000000000000000000000000000000000000000000000000000000000000000000000000000000000000000000000000000000000000000000000000000000000000000000000000000000000000000000000000000000000000000000000000000000000000000000000000000000000000000000000000000000000000000000000000000000000000000000000000000000000000",
                    "coinbase" : "0x2adc25665018aa1fe0e6bc666dac8fc2697ff9ba",
                    "difficulty" : "0x020000",
                    "extraData" : "",
                    "gasLimit" : "0x989680",
                    "gasUsed" : "0x1f41b8",
                    "hash" : "0xb780a17eda830e1b0397d2865e118d00af9064d41e6cc36f0e4eec724400385a",
                    "mixHash" : "0xc435942dbfc32c5385c333e8f15c6c44e63007476ccf2e493b299635f6e8da9e",
                    "nonce" : "0x1cac7b2ff604da8e",
                    "number" : "0x01",
                    "parentHash" : "0xfe43c39ff7fabc7ad1a68bc8baee032f8f2b97691e888c4dd799ea23805c4ff9",
                    "receiptTrie" : "0xa063480326f8d3e0953a9cdc6b54e78f18c11c8b908bd27bffb425d7ce2e59f2",
                    "stateRoot" : "0x4a102822a75812053bdb3a3ba592efd59a91738563482343260e1d969e17640b",
                    "timestamp" : "0x03e8",
                    "transactionsTrie" : "0x138e622ff34e8a4bed7c2631ee946b094d23bd208e8285e710fc5fa254318627",
                    "uncleHash" : "0x1dcc4de8dec75d7aab85b567b6ccd41ad312451b948a7413f0a142fd40d49347"
                },
                "rlp" : "0xf90263f901f8a0fe43c39ff7fabc7ad1a68bc8baee032f8f2b97691e888c4dd799ea23805c4ff9a01dcc4de8dec75d7aab85b567b6ccd41ad312451b948a7413f0a142fd40d49347942adc25665018aa1fe0e6bc666dac8fc2697ff9baa04a102822a75812053bdb3a3ba592efd59a91738563482343260e1d969e17640ba0138e622ff34e8a4bed7c2631ee946b094d23bd208e8285e710fc5fa254318627a0a063480326f8d3e0953a9cdc6b54e78f18c11c8b908bd27bffb425d7ce2e59f2b9010000000000000000000000000000000000000000000000000000000000000000000000000000000000000000000000000000000000000000000000000000000000000000000000000000000000000000000000000000000000000000000000000000000000000000000000000000000000000000000000000000000000000000000000000000000000000000000000000000000000000000000000000000000000000000000000000000000000000000000000000000000000000000000000000000000000000000000000000000000000000000000000000000000000000000000000000000000000000000000000000000000000000000000000000000000000830200000183989680831f41b88203e880a0c435942dbfc32c5385c333e8f15c6c44e63007476ccf2e493b299635f6e8da9e881cac7b2ff604da8ef865f86380018398968094095e7baea6a6c7c4c2dfeb977efac326af552d87830186a0801ca0c8c5469bcab2d89c9083cecdf26c9d3a9e40597d1d82744bc0e5e582f9dc48a4a0433eb07127e317522d4e08b89cd3824eee8bf1c75a2871db940e0c54d0dd09d2c0",
                "transactions" : [
                    {
                        "data" : "",
                        "gasLimit" : "0x989680",
                        "gasPrice" : "0x01",
                        "nonce" : "0x00",
                        "r" : "0xc8c5469bcab2d89c9083cecdf26c9d3a9e40597d1d82744bc0e5e582f9dc48a4",
                        "s" : "0x433eb07127e317522d4e08b89cd3824eee8bf1c75a2871db940e0c54d0dd09d2",
                        "to" : "0x095e7baea6a6c7c4c2dfeb977efac326af552d87",
                        "v" : "0x1c",
                        "value" : "0x0186a0"
                    }
                ],
                "uncleHeaders" : [
                ]
            }
        ],
        "genesisBlockHeader" : {
            "bloom" : "0x00000000000000000000000000000000000000000000000000000000000000000000000000000000000000000000000000000000000000000000000000000000000000000000000000000000000000000000000000000000000000000000000000000000000000000000000000000000000000000000000000000000000000000000000000000000000000000000000000000000000000000000000000000000000000000000000000000000000000000000000000000000000000000000000000000000000000000000000000000000000000000000000000000000000000000000000000000000000000000000000000000000000000000000000000000000",
            "coinbase" : "0x2adc25665018aa1fe0e6bc666dac8fc2697ff9ba",
            "difficulty" : "0x020000",
            "extraData" : "0x42",
            "gasLimit" : "0x989680",
            "gasUsed" : "0x00",
            "hash" : "0xfe43c39ff7fabc7ad1a68bc8baee032f8f2b97691e888c4dd799ea23805c4ff9",
            "mixHash" : "0x56e81f171bcc55a6ff8345e692c0f86e5b48e01b996cadc001622fb5e363b421",
            "nonce" : "0x0102030405060708",
            "number" : "0x00",
            "parentHash" : "0x0000000000000000000000000000000000000000000000000000000000000000",
            "receiptTrie" : "0x56e81f171bcc55a6ff8345e692c0f86e5b48e01b996cadc001622fb5e363b421",
            "stateRoot" : "0xd357e55fdb5d62b4ec83c89c0d74ca848029b9cbb1604078860eaa952571732a",
            "timestamp" : "0x03b6",
            "transactionsTrie" : "0x56e81f171bcc55a6ff8345e692c0f86e5b48e01b996cadc001622fb5e363b421",
            "uncleHash" : "0x1dcc4de8dec75d7aab85b567b6ccd41ad312451b948a7413f0a142fd40d49347"
        },
        "genesisRLP" : "0xf901faf901f5a00000000000000000000000000000000000000000000000000000000000000000a01dcc4de8dec75d7aab85b567b6ccd41ad312451b948a7413f0a142fd40d49347942adc25665018aa1fe0e6bc666dac8fc2697ff9baa0d357e55fdb5d62b4ec83c89c0d74ca848029b9cbb1604078860eaa952571732aa056e81f171bcc55a6ff8345e692c0f86e5b48e01b996cadc001622fb5e363b421a056e81f171bcc55a6ff8345e692c0f86e5b48e01b996cadc001622fb5e363b421b9010000000000000000000000000000000000000000000000000000000000000000000000000000000000000000000000000000000000000000000000000000000000000000000000000000000000000000000000000000000000000000000000000000000000000000000000000000000000000000000000000000000000000000000000000000000000000000000000000000000000000000000000000000000000000000000000000000000000000000000000000000000000000000000000000000000000000000000000000000000000000000000000000000000000000000000000000000000000000000000000000000000000000000000000000000000000830200008083989680808203b642a056e81f171bcc55a6ff8345e692c0f86e5b48e01b996cadc001622fb5e363b421880102030405060708c0c0",
        "lastblockhash" : "0xb780a17eda830e1b0397d2865e118d00af9064d41e6cc36f0e4eec724400385a",
        "network" : "EIP158",
        "postState" : {
            "0x095e7baea6a6c7c4c2dfeb977efac326af552d87" : {
                "balance" : "0x0132b3a0",
                "code" : "0x7fffffffffffffffffffffffffffffffffffffffffffffffffffffffffffffffff60005260206000620f4240600060006004610258f2600255600051600055",
                "nonce" : "0x00",
                "storage" : {
                    "0x00" : "0xffffffffffffffffffffffffffffffffffffffffffffffffffffffffffffffff"
                }
            },
            "0x2adc25665018aa1fe0e6bc666dac8fc2697ff9ba" : {
                "balance" : "0x45639182451341b8",
                "code" : "",
                "nonce" : "0x00",
                "storage" : {
                }
            },
            "0xa94f5374fce5edbc8e2a8697c15331677e6ebf0b" : {
                "balance" : "0x0de0b6b3a74337a8",
                "code" : "",
                "nonce" : "0x01",
                "storage" : {
                }
            }
        },
        "pre" : {
            "0x095e7baea6a6c7c4c2dfeb977efac326af552d87" : {
                "balance" : "0x01312d00",
                "code" : "0x7fffffffffffffffffffffffffffffffffffffffffffffffffffffffffffffffff60005260206000620f4240600060006004610258f2600255600051600055",
                "nonce" : "0x00",
                "storage" : {
                }
            },
            "0xa94f5374fce5edbc8e2a8697c15331677e6ebf0b" : {
                "balance" : "0x0de0b6b3a7640000",
                "code" : "",
                "nonce" : "0x00",
                "storage" : {
                }
            }
        }
    },
    "CALLCODEIdentity_5_d0g0v0_Frontier" : {
        "blocks" : [
            {
                "blockHeader" : {
                    "bloom" : "0x00000000000000000000000000000000000000000000000000000000000000000000000000000000000000000000000000000000000000000000000000000000000000000000000000000000000000000000000000000000000000000000000000000000000000000000000000000000000000000000000000000000000000000000000000000000000000000000000000000000000000000000000000000000000000000000000000000000000000000000000000000000000000000000000000000000000000000000000000000000000000000000000000000000000000000000000000000000000000000000000000000000000000000000000000000000",
                    "coinbase" : "0x2adc25665018aa1fe0e6bc666dac8fc2697ff9ba",
                    "difficulty" : "0x020000",
                    "extraData" : "",
                    "gasLimit" : "0x989680",
                    "gasUsed" : "0x1f3f24",
                    "hash" : "0x4c80f8e891cb93f1f415089352dd07d5c4883b502139f18dccb25878d903c233",
                    "mixHash" : "0xf094a60c0ee716102eb7105fcb92a0f68cb89dd7c14148304f24f093dbead2bb",
                    "nonce" : "0xd33753c83c306a90",
                    "number" : "0x01",
                    "parentHash" : "0xfe43c39ff7fabc7ad1a68bc8baee032f8f2b97691e888c4dd799ea23805c4ff9",
                    "receiptTrie" : "0xa7c840281c62206892fadbec106f4a24a400a0381afcf483b8ffe5f61eedd910",
                    "stateRoot" : "0xb46b8a6e4f71081e4abfd52433b1b0e684d75a70c8d79993c0c94205cb90e9e3",
                    "timestamp" : "0x03e8",
                    "transactionsTrie" : "0x138e622ff34e8a4bed7c2631ee946b094d23bd208e8285e710fc5fa254318627",
                    "uncleHash" : "0x1dcc4de8dec75d7aab85b567b6ccd41ad312451b948a7413f0a142fd40d49347"
                },
                "rlp" : "0xf90263f901f8a0fe43c39ff7fabc7ad1a68bc8baee032f8f2b97691e888c4dd799ea23805c4ff9a01dcc4de8dec75d7aab85b567b6ccd41ad312451b948a7413f0a142fd40d49347942adc25665018aa1fe0e6bc666dac8fc2697ff9baa0b46b8a6e4f71081e4abfd52433b1b0e684d75a70c8d79993c0c94205cb90e9e3a0138e622ff34e8a4bed7c2631ee946b094d23bd208e8285e710fc5fa254318627a0a7c840281c62206892fadbec106f4a24a400a0381afcf483b8ffe5f61eedd910b9010000000000000000000000000000000000000000000000000000000000000000000000000000000000000000000000000000000000000000000000000000000000000000000000000000000000000000000000000000000000000000000000000000000000000000000000000000000000000000000000000000000000000000000000000000000000000000000000000000000000000000000000000000000000000000000000000000000000000000000000000000000000000000000000000000000000000000000000000000000000000000000000000000000000000000000000000000000000000000000000000000000000000000000000000000000000830200000183989680831f3f248203e880a0f094a60c0ee716102eb7105fcb92a0f68cb89dd7c14148304f24f093dbead2bb88d33753c83c306a90f865f86380018398968094095e7baea6a6c7c4c2dfeb977efac326af552d87830186a0801ca0c8c5469bcab2d89c9083cecdf26c9d3a9e40597d1d82744bc0e5e582f9dc48a4a0433eb07127e317522d4e08b89cd3824eee8bf1c75a2871db940e0c54d0dd09d2c0",
                "transactions" : [
                    {
                        "data" : "",
                        "gasLimit" : "0x989680",
                        "gasPrice" : "0x01",
                        "nonce" : "0x00",
                        "r" : "0xc8c5469bcab2d89c9083cecdf26c9d3a9e40597d1d82744bc0e5e582f9dc48a4",
                        "s" : "0x433eb07127e317522d4e08b89cd3824eee8bf1c75a2871db940e0c54d0dd09d2",
                        "to" : "0x095e7baea6a6c7c4c2dfeb977efac326af552d87",
                        "v" : "0x1c",
                        "value" : "0x0186a0"
                    }
                ],
                "uncleHeaders" : [
                ]
            }
        ],
        "genesisBlockHeader" : {
            "bloom" : "0x00000000000000000000000000000000000000000000000000000000000000000000000000000000000000000000000000000000000000000000000000000000000000000000000000000000000000000000000000000000000000000000000000000000000000000000000000000000000000000000000000000000000000000000000000000000000000000000000000000000000000000000000000000000000000000000000000000000000000000000000000000000000000000000000000000000000000000000000000000000000000000000000000000000000000000000000000000000000000000000000000000000000000000000000000000000",
            "coinbase" : "0x2adc25665018aa1fe0e6bc666dac8fc2697ff9ba",
            "difficulty" : "0x020000",
            "extraData" : "0x42",
            "gasLimit" : "0x989680",
            "gasUsed" : "0x00",
            "hash" : "0xfe43c39ff7fabc7ad1a68bc8baee032f8f2b97691e888c4dd799ea23805c4ff9",
            "mixHash" : "0x56e81f171bcc55a6ff8345e692c0f86e5b48e01b996cadc001622fb5e363b421",
            "nonce" : "0x0102030405060708",
            "number" : "0x00",
            "parentHash" : "0x0000000000000000000000000000000000000000000000000000000000000000",
            "receiptTrie" : "0x56e81f171bcc55a6ff8345e692c0f86e5b48e01b996cadc001622fb5e363b421",
            "stateRoot" : "0xd357e55fdb5d62b4ec83c89c0d74ca848029b9cbb1604078860eaa952571732a",
            "timestamp" : "0x03b6",
            "transactionsTrie" : "0x56e81f171bcc55a6ff8345e692c0f86e5b48e01b996cadc001622fb5e363b421",
            "uncleHash" : "0x1dcc4de8dec75d7aab85b567b6ccd41ad312451b948a7413f0a142fd40d49347"
        },
        "genesisRLP" : "0xf901faf901f5a00000000000000000000000000000000000000000000000000000000000000000a01dcc4de8dec75d7aab85b567b6ccd41ad312451b948a7413f0a142fd40d49347942adc25665018aa1fe0e6bc666dac8fc2697ff9baa0d357e55fdb5d62b4ec83c89c0d74ca848029b9cbb1604078860eaa952571732aa056e81f171bcc55a6ff8345e692c0f86e5b48e01b996cadc001622fb5e363b421a056e81f171bcc55a6ff8345e692c0f86e5b48e01b996cadc001622fb5e363b421b9010000000000000000000000000000000000000000000000000000000000000000000000000000000000000000000000000000000000000000000000000000000000000000000000000000000000000000000000000000000000000000000000000000000000000000000000000000000000000000000000000000000000000000000000000000000000000000000000000000000000000000000000000000000000000000000000000000000000000000000000000000000000000000000000000000000000000000000000000000000000000000000000000000000000000000000000000000000000000000000000000000000000000000000000000000000000830200008083989680808203b642a056e81f171bcc55a6ff8345e692c0f86e5b48e01b996cadc001622fb5e363b421880102030405060708c0c0",
        "lastblockhash" : "0x4c80f8e891cb93f1f415089352dd07d5c4883b502139f18dccb25878d903c233",
        "network" : "Frontier",
        "postState" : {
            "0x095e7baea6a6c7c4c2dfeb977efac326af552d87" : {
                "balance" : "0x0132b3a0",
                "code" : "0x7fffffffffffffffffffffffffffffffffffffffffffffffffffffffffffffffff60005260206000620f4240600060006004610258f2600255600051600055",
                "nonce" : "0x00",
                "storage" : {
                    "0x00" : "0xffffffffffffffffffffffffffffffffffffffffffffffffffffffffffffffff"
                }
            },
            "0x2adc25665018aa1fe0e6bc666dac8fc2697ff9ba" : {
                "balance" : "0x4563918245133f24",
                "code" : "",
                "nonce" : "0x00",
                "storage" : {
                }
            },
            "0xa94f5374fce5edbc8e2a8697c15331677e6ebf0b" : {
                "balance" : "0x0de0b6b3a7433a3c",
                "code" : "",
                "nonce" : "0x01",
                "storage" : {
                }
            }
        },
        "pre" : {
            "0x095e7baea6a6c7c4c2dfeb977efac326af552d87" : {
                "balance" : "0x01312d00",
                "code" : "0x7fffffffffffffffffffffffffffffffffffffffffffffffffffffffffffffffff60005260206000620f4240600060006004610258f2600255600051600055",
                "nonce" : "0x00",
                "storage" : {
                }
            },
            "0xa94f5374fce5edbc8e2a8697c15331677e6ebf0b" : {
                "balance" : "0x0de0b6b3a7640000",
                "code" : "",
                "nonce" : "0x00",
                "storage" : {
                }
            }
        }
    },
    "CALLCODEIdentity_5_d0g0v0_Homestead" : {
        "blocks" : [
            {
                "blockHeader" : {
                    "bloom" : "0x00000000000000000000000000000000000000000000000000000000000000000000000000000000000000000000000000000000000000000000000000000000000000000000000000000000000000000000000000000000000000000000000000000000000000000000000000000000000000000000000000000000000000000000000000000000000000000000000000000000000000000000000000000000000000000000000000000000000000000000000000000000000000000000000000000000000000000000000000000000000000000000000000000000000000000000000000000000000000000000000000000000000000000000000000000000",
                    "coinbase" : "0x2adc25665018aa1fe0e6bc666dac8fc2697ff9ba",
                    "difficulty" : "0x020000",
                    "extraData" : "",
                    "gasLimit" : "0x989680",
                    "gasUsed" : "0x1f3f24",
                    "hash" : "0x25a0d06828fae12b8954c6d37f2236d0bf3c81a4ac0d91ec827cb9461b140be6",
                    "mixHash" : "0x057388b4c51c2b182353b573fab4d36e02f4e0931dc183567b3d3f47751e719e",
                    "nonce" : "0xc285971d12bdd933",
                    "number" : "0x01",
                    "parentHash" : "0xfe43c39ff7fabc7ad1a68bc8baee032f8f2b97691e888c4dd799ea23805c4ff9",
                    "receiptTrie" : "0xa7c840281c62206892fadbec106f4a24a400a0381afcf483b8ffe5f61eedd910",
                    "stateRoot" : "0xb46b8a6e4f71081e4abfd52433b1b0e684d75a70c8d79993c0c94205cb90e9e3",
                    "timestamp" : "0x03e8",
                    "transactionsTrie" : "0x138e622ff34e8a4bed7c2631ee946b094d23bd208e8285e710fc5fa254318627",
                    "uncleHash" : "0x1dcc4de8dec75d7aab85b567b6ccd41ad312451b948a7413f0a142fd40d49347"
                },
                "rlp" : "0xf90263f901f8a0fe43c39ff7fabc7ad1a68bc8baee032f8f2b97691e888c4dd799ea23805c4ff9a01dcc4de8dec75d7aab85b567b6ccd41ad312451b948a7413f0a142fd40d49347942adc25665018aa1fe0e6bc666dac8fc2697ff9baa0b46b8a6e4f71081e4abfd52433b1b0e684d75a70c8d79993c0c94205cb90e9e3a0138e622ff34e8a4bed7c2631ee946b094d23bd208e8285e710fc5fa254318627a0a7c840281c62206892fadbec106f4a24a400a0381afcf483b8ffe5f61eedd910b9010000000000000000000000000000000000000000000000000000000000000000000000000000000000000000000000000000000000000000000000000000000000000000000000000000000000000000000000000000000000000000000000000000000000000000000000000000000000000000000000000000000000000000000000000000000000000000000000000000000000000000000000000000000000000000000000000000000000000000000000000000000000000000000000000000000000000000000000000000000000000000000000000000000000000000000000000000000000000000000000000000000000000000000000000000000000830200000183989680831f3f248203e880a0057388b4c51c2b182353b573fab4d36e02f4e0931dc183567b3d3f47751e719e88c285971d12bdd933f865f86380018398968094095e7baea6a6c7c4c2dfeb977efac326af552d87830186a0801ca0c8c5469bcab2d89c9083cecdf26c9d3a9e40597d1d82744bc0e5e582f9dc48a4a0433eb07127e317522d4e08b89cd3824eee8bf1c75a2871db940e0c54d0dd09d2c0",
                "transactions" : [
                    {
                        "data" : "",
                        "gasLimit" : "0x989680",
                        "gasPrice" : "0x01",
                        "nonce" : "0x00",
                        "r" : "0xc8c5469bcab2d89c9083cecdf26c9d3a9e40597d1d82744bc0e5e582f9dc48a4",
                        "s" : "0x433eb07127e317522d4e08b89cd3824eee8bf1c75a2871db940e0c54d0dd09d2",
                        "to" : "0x095e7baea6a6c7c4c2dfeb977efac326af552d87",
                        "v" : "0x1c",
                        "value" : "0x0186a0"
                    }
                ],
                "uncleHeaders" : [
                ]
            }
        ],
        "genesisBlockHeader" : {
            "bloom" : "0x00000000000000000000000000000000000000000000000000000000000000000000000000000000000000000000000000000000000000000000000000000000000000000000000000000000000000000000000000000000000000000000000000000000000000000000000000000000000000000000000000000000000000000000000000000000000000000000000000000000000000000000000000000000000000000000000000000000000000000000000000000000000000000000000000000000000000000000000000000000000000000000000000000000000000000000000000000000000000000000000000000000000000000000000000000000",
            "coinbase" : "0x2adc25665018aa1fe0e6bc666dac8fc2697ff9ba",
            "difficulty" : "0x020000",
            "extraData" : "0x42",
            "gasLimit" : "0x989680",
            "gasUsed" : "0x00",
            "hash" : "0xfe43c39ff7fabc7ad1a68bc8baee032f8f2b97691e888c4dd799ea23805c4ff9",
            "mixHash" : "0x56e81f171bcc55a6ff8345e692c0f86e5b48e01b996cadc001622fb5e363b421",
            "nonce" : "0x0102030405060708",
            "number" : "0x00",
            "parentHash" : "0x0000000000000000000000000000000000000000000000000000000000000000",
            "receiptTrie" : "0x56e81f171bcc55a6ff8345e692c0f86e5b48e01b996cadc001622fb5e363b421",
            "stateRoot" : "0xd357e55fdb5d62b4ec83c89c0d74ca848029b9cbb1604078860eaa952571732a",
            "timestamp" : "0x03b6",
            "transactionsTrie" : "0x56e81f171bcc55a6ff8345e692c0f86e5b48e01b996cadc001622fb5e363b421",
            "uncleHash" : "0x1dcc4de8dec75d7aab85b567b6ccd41ad312451b948a7413f0a142fd40d49347"
        },
        "genesisRLP" : "0xf901faf901f5a00000000000000000000000000000000000000000000000000000000000000000a01dcc4de8dec75d7aab85b567b6ccd41ad312451b948a7413f0a142fd40d49347942adc25665018aa1fe0e6bc666dac8fc2697ff9baa0d357e55fdb5d62b4ec83c89c0d74ca848029b9cbb1604078860eaa952571732aa056e81f171bcc55a6ff8345e692c0f86e5b48e01b996cadc001622fb5e363b421a056e81f171bcc55a6ff8345e692c0f86e5b48e01b996cadc001622fb5e363b421b9010000000000000000000000000000000000000000000000000000000000000000000000000000000000000000000000000000000000000000000000000000000000000000000000000000000000000000000000000000000000000000000000000000000000000000000000000000000000000000000000000000000000000000000000000000000000000000000000000000000000000000000000000000000000000000000000000000000000000000000000000000000000000000000000000000000000000000000000000000000000000000000000000000000000000000000000000000000000000000000000000000000000000000000000000000000000830200008083989680808203b642a056e81f171bcc55a6ff8345e692c0f86e5b48e01b996cadc001622fb5e363b421880102030405060708c0c0",
        "lastblockhash" : "0x25a0d06828fae12b8954c6d37f2236d0bf3c81a4ac0d91ec827cb9461b140be6",
        "network" : "Homestead",
        "postState" : {
            "0x095e7baea6a6c7c4c2dfeb977efac326af552d87" : {
                "balance" : "0x0132b3a0",
                "code" : "0x7fffffffffffffffffffffffffffffffffffffffffffffffffffffffffffffffff60005260206000620f4240600060006004610258f2600255600051600055",
                "nonce" : "0x00",
                "storage" : {
                    "0x00" : "0xffffffffffffffffffffffffffffffffffffffffffffffffffffffffffffffff"
                }
            },
            "0x2adc25665018aa1fe0e6bc666dac8fc2697ff9ba" : {
                "balance" : "0x4563918245133f24",
                "code" : "",
                "nonce" : "0x00",
                "storage" : {
                }
            },
            "0xa94f5374fce5edbc8e2a8697c15331677e6ebf0b" : {
                "balance" : "0x0de0b6b3a7433a3c",
                "code" : "",
                "nonce" : "0x01",
                "storage" : {
                }
            }
        },
        "pre" : {
            "0x095e7baea6a6c7c4c2dfeb977efac326af552d87" : {
                "balance" : "0x01312d00",
                "code" : "0x7fffffffffffffffffffffffffffffffffffffffffffffffffffffffffffffffff60005260206000620f4240600060006004610258f2600255600051600055",
                "nonce" : "0x00",
                "storage" : {
                }
            },
            "0xa94f5374fce5edbc8e2a8697c15331677e6ebf0b" : {
                "balance" : "0x0de0b6b3a7640000",
                "code" : "",
                "nonce" : "0x00",
                "storage" : {
                }
            }
        }
    },
    "CALLCODEIdentity_5_d0g0v0_Metropolis" : {
        "blocks" : [
            {
                "blockHeader" : {
                    "bloom" : "0x00000000000000000000000000000000000000000000000000000000000000000000000000000000000000000000000000000000000000000000000000000000000000000000000000000000000000000000000000000000000000000000000000000000000000000000000000000000000000000000000000000000000000000000000000000000000000000000000000000000000000000000000000000000000000000000000000000000000000000000000000000000000000000000000000000000000000000000000000000000000000000000000000000000000000000000000000000000000000000000000000000000000000000000000000000000",
                    "coinbase" : "0x2adc25665018aa1fe0e6bc666dac8fc2697ff9ba",
                    "difficulty" : "0x020000",
                    "extraData" : "",
                    "gasLimit" : "0x989680",
                    "gasUsed" : "0x1f41b8",
                    "hash" : "0x2d0c3569ab3d3a4eaaf55d237d93c4fe33ca051519a902e2f66d11f1341ca84a",
                    "mixHash" : "0x64f63987803abd5c887cb61eabeba8d704fbc6278ddbbf6b7d5b4ff24c5395ca",
                    "nonce" : "0xf16e8a3873faaf43",
                    "number" : "0x01",
                    "parentHash" : "0xfe43c39ff7fabc7ad1a68bc8baee032f8f2b97691e888c4dd799ea23805c4ff9",
                    "receiptTrie" : "0x68556e5393e4bad128fea0831caaff2c9935c951bdd3f44b9236ef04af777e2e",
                    "stateRoot" : "0xaa44d54484c7213d748c521a7befa132e976c710dac9dd0d164d86a6bb304610",
                    "timestamp" : "0x03e8",
                    "transactionsTrie" : "0x138e622ff34e8a4bed7c2631ee946b094d23bd208e8285e710fc5fa254318627",
                    "uncleHash" : "0x1dcc4de8dec75d7aab85b567b6ccd41ad312451b948a7413f0a142fd40d49347"
                },
                "rlp" : "0xf90263f901f8a0fe43c39ff7fabc7ad1a68bc8baee032f8f2b97691e888c4dd799ea23805c4ff9a01dcc4de8dec75d7aab85b567b6ccd41ad312451b948a7413f0a142fd40d49347942adc25665018aa1fe0e6bc666dac8fc2697ff9baa0aa44d54484c7213d748c521a7befa132e976c710dac9dd0d164d86a6bb304610a0138e622ff34e8a4bed7c2631ee946b094d23bd208e8285e710fc5fa254318627a068556e5393e4bad128fea0831caaff2c9935c951bdd3f44b9236ef04af777e2eb9010000000000000000000000000000000000000000000000000000000000000000000000000000000000000000000000000000000000000000000000000000000000000000000000000000000000000000000000000000000000000000000000000000000000000000000000000000000000000000000000000000000000000000000000000000000000000000000000000000000000000000000000000000000000000000000000000000000000000000000000000000000000000000000000000000000000000000000000000000000000000000000000000000000000000000000000000000000000000000000000000000000000000000000000000000000000830200000183989680831f41b88203e880a064f63987803abd5c887cb61eabeba8d704fbc6278ddbbf6b7d5b4ff24c5395ca88f16e8a3873faaf43f865f86380018398968094095e7baea6a6c7c4c2dfeb977efac326af552d87830186a0801ca0c8c5469bcab2d89c9083cecdf26c9d3a9e40597d1d82744bc0e5e582f9dc48a4a0433eb07127e317522d4e08b89cd3824eee8bf1c75a2871db940e0c54d0dd09d2c0",
                "transactions" : [
                    {
                        "data" : "",
                        "gasLimit" : "0x989680",
                        "gasPrice" : "0x01",
                        "nonce" : "0x00",
                        "r" : "0xc8c5469bcab2d89c9083cecdf26c9d3a9e40597d1d82744bc0e5e582f9dc48a4",
                        "s" : "0x433eb07127e317522d4e08b89cd3824eee8bf1c75a2871db940e0c54d0dd09d2",
                        "to" : "0x095e7baea6a6c7c4c2dfeb977efac326af552d87",
                        "v" : "0x1c",
                        "value" : "0x0186a0"
                    }
                ],
                "uncleHeaders" : [
                ]
            }
        ],
        "genesisBlockHeader" : {
            "bloom" : "0x00000000000000000000000000000000000000000000000000000000000000000000000000000000000000000000000000000000000000000000000000000000000000000000000000000000000000000000000000000000000000000000000000000000000000000000000000000000000000000000000000000000000000000000000000000000000000000000000000000000000000000000000000000000000000000000000000000000000000000000000000000000000000000000000000000000000000000000000000000000000000000000000000000000000000000000000000000000000000000000000000000000000000000000000000000000",
            "coinbase" : "0x2adc25665018aa1fe0e6bc666dac8fc2697ff9ba",
            "difficulty" : "0x020000",
            "extraData" : "0x42",
            "gasLimit" : "0x989680",
            "gasUsed" : "0x00",
            "hash" : "0xfe43c39ff7fabc7ad1a68bc8baee032f8f2b97691e888c4dd799ea23805c4ff9",
            "mixHash" : "0x56e81f171bcc55a6ff8345e692c0f86e5b48e01b996cadc001622fb5e363b421",
            "nonce" : "0x0102030405060708",
            "number" : "0x00",
            "parentHash" : "0x0000000000000000000000000000000000000000000000000000000000000000",
            "receiptTrie" : "0x56e81f171bcc55a6ff8345e692c0f86e5b48e01b996cadc001622fb5e363b421",
            "stateRoot" : "0xd357e55fdb5d62b4ec83c89c0d74ca848029b9cbb1604078860eaa952571732a",
            "timestamp" : "0x03b6",
            "transactionsTrie" : "0x56e81f171bcc55a6ff8345e692c0f86e5b48e01b996cadc001622fb5e363b421",
            "uncleHash" : "0x1dcc4de8dec75d7aab85b567b6ccd41ad312451b948a7413f0a142fd40d49347"
        },
        "genesisRLP" : "0xf901faf901f5a00000000000000000000000000000000000000000000000000000000000000000a01dcc4de8dec75d7aab85b567b6ccd41ad312451b948a7413f0a142fd40d49347942adc25665018aa1fe0e6bc666dac8fc2697ff9baa0d357e55fdb5d62b4ec83c89c0d74ca848029b9cbb1604078860eaa952571732aa056e81f171bcc55a6ff8345e692c0f86e5b48e01b996cadc001622fb5e363b421a056e81f171bcc55a6ff8345e692c0f86e5b48e01b996cadc001622fb5e363b421b9010000000000000000000000000000000000000000000000000000000000000000000000000000000000000000000000000000000000000000000000000000000000000000000000000000000000000000000000000000000000000000000000000000000000000000000000000000000000000000000000000000000000000000000000000000000000000000000000000000000000000000000000000000000000000000000000000000000000000000000000000000000000000000000000000000000000000000000000000000000000000000000000000000000000000000000000000000000000000000000000000000000000000000000000000000000000830200008083989680808203b642a056e81f171bcc55a6ff8345e692c0f86e5b48e01b996cadc001622fb5e363b421880102030405060708c0c0",
        "lastblockhash" : "0x2d0c3569ab3d3a4eaaf55d237d93c4fe33ca051519a902e2f66d11f1341ca84a",
        "network" : "Metropolis",
        "postState" : {
            "0x00000000000000000000000000000000000000f0" : {
                "balance" : "0x00",
                "code" : "",
                "nonce" : "0x00",
                "storage" : {
                }
            },
            "0x095e7baea6a6c7c4c2dfeb977efac326af552d87" : {
                "balance" : "0x0132b3a0",
                "code" : "0x7fffffffffffffffffffffffffffffffffffffffffffffffffffffffffffffffff60005260206000620f4240600060006004610258f2600255600051600055",
                "nonce" : "0x00",
                "storage" : {
                    "0x00" : "0xffffffffffffffffffffffffffffffffffffffffffffffffffffffffffffffff"
                }
            },
            "0x2adc25665018aa1fe0e6bc666dac8fc2697ff9ba" : {
                "balance" : "0x45639182451341b8",
                "code" : "",
                "nonce" : "0x00",
                "storage" : {
                }
            },
            "0xa94f5374fce5edbc8e2a8697c15331677e6ebf0b" : {
                "balance" : "0x0de0b6b3a74337a8",
                "code" : "",
                "nonce" : "0x01",
                "storage" : {
                }
            }
        },
        "pre" : {
            "0x095e7baea6a6c7c4c2dfeb977efac326af552d87" : {
                "balance" : "0x01312d00",
                "code" : "0x7fffffffffffffffffffffffffffffffffffffffffffffffffffffffffffffffff60005260206000620f4240600060006004610258f2600255600051600055",
                "nonce" : "0x00",
                "storage" : {
                }
            },
            "0xa94f5374fce5edbc8e2a8697c15331677e6ebf0b" : {
                "balance" : "0x0de0b6b3a7640000",
                "code" : "",
                "nonce" : "0x00",
                "storage" : {
                }
            }
        }
    }
}