{
    "CallIdentity_4_gas17_d0g0v0_EIP150" : {
        "blocks" : [
            {
                "blockHeader" : {
                    "bloom" : "0x00000000000000000000000000000000000000000000000000000000000000000000000000000000000000000000000000000000000000000000000000000000000000000000000000000000000000000000000000000000000000000000000000000000000000000000000000000000000000000000000000000000000000000000000000000000000000000000000000000000000000000000000000000000000000000000000000000000000000000000000000000000000000000000000000000000000000000000000000000000000000000000000000000000000000000000000000000000000000000000000000000000000000000000000000000000",
                    "coinbase" : "0x2adc25665018aa1fe0e6bc666dac8fc2697ff9ba",
                    "difficulty" : "0x020000",
                    "extraData" : "",
                    "gasLimit" : "0x989680",
                    "gasUsed" : "0x011852",
                    "hash" : "0x77a1d4fa509512e86f2620e7000b9ea8fab49de1f6a527b27a0932a175aab582",
                    "mixHash" : "0xab35a3fb4b17d6445b9b65575355be26177b3d1f894b702cf23bf79a7e2746d8",
                    "nonce" : "0xa82d4f86891f55c1",
                    "number" : "0x01",
                    "parentHash" : "0xaff3e71e431d5cd268328e1911d1ffc911a2f5e8204fb319753662428092560f",
                    "receiptTrie" : "0x7616634a5a0f1c85b8b412702a8c8bbed5eefcb7de4651f4a85a50122b220951",
                    "stateRoot" : "0xb6f4fdff0e5e1612b84a90b3e6354de9b8a4904aea51007ca4a721c5e0e91708",
                    "timestamp" : "0x03e8",
                    "transactionsTrie" : "0x98fa170d192a6eff341cc8b8392cf1c8256997c28117ae4c20481271ffe00b0b",
                    "uncleHash" : "0x1dcc4de8dec75d7aab85b567b6ccd41ad312451b948a7413f0a142fd40d49347"
                },
                "rlp" : "0xf90263f901f8a0aff3e71e431d5cd268328e1911d1ffc911a2f5e8204fb319753662428092560fa01dcc4de8dec75d7aab85b567b6ccd41ad312451b948a7413f0a142fd40d49347942adc25665018aa1fe0e6bc666dac8fc2697ff9baa0b6f4fdff0e5e1612b84a90b3e6354de9b8a4904aea51007ca4a721c5e0e91708a098fa170d192a6eff341cc8b8392cf1c8256997c28117ae4c20481271ffe00b0ba07616634a5a0f1c85b8b412702a8c8bbed5eefcb7de4651f4a85a50122b220951b9010000000000000000000000000000000000000000000000000000000000000000000000000000000000000000000000000000000000000000000000000000000000000000000000000000000000000000000000000000000000000000000000000000000000000000000000000000000000000000000000000000000000000000000000000000000000000000000000000000000000000000000000000000000000000000000000000000000000000000000000000000000000000000000000000000000000000000000000000000000000000000000000000000000000000000000000000000000000000000000000000000000000000000000000000000000000830200000183989680830118528203e880a0ab35a3fb4b17d6445b9b65575355be26177b3d1f894b702cf23bf79a7e2746d888a82d4f86891f55c1f865f8638001830592a894095e7baea6a6c7c4c2dfeb977efac326af552d87830186a0801ca082cfe09a590896d5e895674505c40f1701ab05245f9f568bf506b9558e61c67fa04a98fee75f6fbf3fa4b3e104a9bb7283a6e076670719bac8af481531151b7b3cc0",
                "transactions" : [
                    {
                        "data" : "",
                        "gasLimit" : "0x0592a8",
                        "gasPrice" : "0x01",
                        "nonce" : "0x00",
                        "r" : "0x82cfe09a590896d5e895674505c40f1701ab05245f9f568bf506b9558e61c67f",
                        "s" : "0x4a98fee75f6fbf3fa4b3e104a9bb7283a6e076670719bac8af481531151b7b3c",
                        "to" : "0x095e7baea6a6c7c4c2dfeb977efac326af552d87",
                        "v" : "0x1c",
                        "value" : "0x0186a0"
                    }
                ],
                "uncleHeaders" : [
                ]
            }
        ],
        "genesisBlockHeader" : {
            "bloom" : "0x00000000000000000000000000000000000000000000000000000000000000000000000000000000000000000000000000000000000000000000000000000000000000000000000000000000000000000000000000000000000000000000000000000000000000000000000000000000000000000000000000000000000000000000000000000000000000000000000000000000000000000000000000000000000000000000000000000000000000000000000000000000000000000000000000000000000000000000000000000000000000000000000000000000000000000000000000000000000000000000000000000000000000000000000000000000",
            "coinbase" : "0x2adc25665018aa1fe0e6bc666dac8fc2697ff9ba",
            "difficulty" : "0x020000",
            "extraData" : "0x42",
            "gasLimit" : "0x989680",
            "gasUsed" : "0x00",
            "hash" : "0xaff3e71e431d5cd268328e1911d1ffc911a2f5e8204fb319753662428092560f",
            "mixHash" : "0x56e81f171bcc55a6ff8345e692c0f86e5b48e01b996cadc001622fb5e363b421",
            "nonce" : "0x0102030405060708",
            "number" : "0x00",
            "parentHash" : "0x0000000000000000000000000000000000000000000000000000000000000000",
            "receiptTrie" : "0x56e81f171bcc55a6ff8345e692c0f86e5b48e01b996cadc001622fb5e363b421",
            "stateRoot" : "0x66ba9574bb912bef83ad9dd7722e968c2facf620a8770d317f66864dd6638cfe",
            "timestamp" : "0x03b6",
            "transactionsTrie" : "0x56e81f171bcc55a6ff8345e692c0f86e5b48e01b996cadc001622fb5e363b421",
            "uncleHash" : "0x1dcc4de8dec75d7aab85b567b6ccd41ad312451b948a7413f0a142fd40d49347"
        },
        "genesisRLP" : "0xf901faf901f5a00000000000000000000000000000000000000000000000000000000000000000a01dcc4de8dec75d7aab85b567b6ccd41ad312451b948a7413f0a142fd40d49347942adc25665018aa1fe0e6bc666dac8fc2697ff9baa066ba9574bb912bef83ad9dd7722e968c2facf620a8770d317f66864dd6638cfea056e81f171bcc55a6ff8345e692c0f86e5b48e01b996cadc001622fb5e363b421a056e81f171bcc55a6ff8345e692c0f86e5b48e01b996cadc001622fb5e363b421b9010000000000000000000000000000000000000000000000000000000000000000000000000000000000000000000000000000000000000000000000000000000000000000000000000000000000000000000000000000000000000000000000000000000000000000000000000000000000000000000000000000000000000000000000000000000000000000000000000000000000000000000000000000000000000000000000000000000000000000000000000000000000000000000000000000000000000000000000000000000000000000000000000000000000000000000000000000000000000000000000000000000000000000000000000000000000830200008083989680808203b642a056e81f171bcc55a6ff8345e692c0f86e5b48e01b996cadc001622fb5e363b421880102030405060708c0c0",
        "lastblockhash" : "0x77a1d4fa509512e86f2620e7000b9ea8fab49de1f6a527b27a0932a175aab582",
        "network" : "EIP150",
        "postState" : {
            "0x095e7baea6a6c7c4c2dfeb977efac326af552d87" : {
                "balance" : "0x0132b3a0",
                "code" : "0x7fffffffffffffffffffffffffffffffffffffffffffffffffffffffffffffffff6000526020600060206000600060046011f1600255600051600055",
                "nonce" : "0x00",
                "storage" : {
                    "0x00" : "0xffffffffffffffffffffffffffffffffffffffffffffffffffffffffffffffff"
                }
            },
            "0x2adc25665018aa1fe0e6bc666dac8fc2697ff9ba" : {
                "balance" : "0x4563918244f51852",
                "code" : "",
                "nonce" : "0x00",
                "storage" : {
                }
            },
            "0xa94f5374fce5edbc8e2a8697c15331677e6ebf0b" : {
                "balance" : "0x0de0b6b3a761610e",
                "code" : "",
                "nonce" : "0x01",
                "storage" : {
                }
            }
        },
        "pre" : {
            "0x095e7baea6a6c7c4c2dfeb977efac326af552d87" : {
                "balance" : "0x01312d00",
                "code" : "0x7fffffffffffffffffffffffffffffffffffffffffffffffffffffffffffffffff6000526020600060206000600060046011f1600255600051600055",
                "nonce" : "0x00",
                "storage" : {
                }
            },
            "0xa94f5374fce5edbc8e2a8697c15331677e6ebf0b" : {
                "balance" : "0x0de0b6b3a7640000",
                "code" : "",
                "nonce" : "0x00",
                "storage" : {
                }
            }
        }
    },
    "CallIdentity_4_gas17_d0g0v0_EIP158" : {
        "blocks" : [
            {
                "blockHeader" : {
                    "bloom" : "0x00000000000000000000000000000000000000000000000000000000000000000000000000000000000000000000000000000000000000000000000000000000000000000000000000000000000000000000000000000000000000000000000000000000000000000000000000000000000000000000000000000000000000000000000000000000000000000000000000000000000000000000000000000000000000000000000000000000000000000000000000000000000000000000000000000000000000000000000000000000000000000000000000000000000000000000000000000000000000000000000000000000000000000000000000000000",
                    "coinbase" : "0x2adc25665018aa1fe0e6bc666dac8fc2697ff9ba",
                    "difficulty" : "0x020000",
                    "extraData" : "",
                    "gasLimit" : "0x989680",
                    "gasUsed" : "0xb6aa",
                    "hash" : "0x0c8e06e6858861c96cd367a6837b6cebf2c5b998b76501d70b1b5995cd5e998f",
                    "mixHash" : "0x8b3e24371bd2d29e19db05d1a3ac07b51e86ddc44c9bf226b4fae35a29c0bcc2",
                    "nonce" : "0x85147cd6c6cf7f68",
                    "number" : "0x01",
                    "parentHash" : "0xaff3e71e431d5cd268328e1911d1ffc911a2f5e8204fb319753662428092560f",
                    "receiptTrie" : "0xc2aeb342c92c86ec2dfc48244840975c6739cc7d13de7df61e1712d2aed0e75d",
                    "stateRoot" : "0x7b6a22636cf7f61fc9e6a553832e0eaa35f8d9bab0307005a0037e0b5a149277",
                    "timestamp" : "0x03e8",
                    "transactionsTrie" : "0x98fa170d192a6eff341cc8b8392cf1c8256997c28117ae4c20481271ffe00b0b",
                    "uncleHash" : "0x1dcc4de8dec75d7aab85b567b6ccd41ad312451b948a7413f0a142fd40d49347"
                },
                "rlp" : "0xf90262f901f7a0aff3e71e431d5cd268328e1911d1ffc911a2f5e8204fb319753662428092560fa01dcc4de8dec75d7aab85b567b6ccd41ad312451b948a7413f0a142fd40d49347942adc25665018aa1fe0e6bc666dac8fc2697ff9baa07b6a22636cf7f61fc9e6a553832e0eaa35f8d9bab0307005a0037e0b5a149277a098fa170d192a6eff341cc8b8392cf1c8256997c28117ae4c20481271ffe00b0ba0c2aeb342c92c86ec2dfc48244840975c6739cc7d13de7df61e1712d2aed0e75db901000000000000000000000000000000000000000000000000000000000000000000000000000000000000000000000000000000000000000000000000000000000000000000000000000000000000000000000000000000000000000000000000000000000000000000000000000000000000000000000000000000000000000000000000000000000000000000000000000000000000000000000000000000000000000000000000000000000000000000000000000000000000000000000000000000000000000000000000000000000000000000000000000000000000000000000000000000000000000000000000000000000000000000000000000000000083020000018398968082b6aa8203e880a08b3e24371bd2d29e19db05d1a3ac07b51e86ddc44c9bf226b4fae35a29c0bcc28885147cd6c6cf7f68f865f8638001830592a894095e7baea6a6c7c4c2dfeb977efac326af552d87830186a0801ca082cfe09a590896d5e895674505c40f1701ab05245f9f568bf506b9558e61c67fa04a98fee75f6fbf3fa4b3e104a9bb7283a6e076670719bac8af481531151b7b3cc0",
                "transactions" : [
                    {
                        "data" : "",
                        "gasLimit" : "0x0592a8",
                        "gasPrice" : "0x01",
                        "nonce" : "0x00",
                        "r" : "0x82cfe09a590896d5e895674505c40f1701ab05245f9f568bf506b9558e61c67f",
                        "s" : "0x4a98fee75f6fbf3fa4b3e104a9bb7283a6e076670719bac8af481531151b7b3c",
                        "to" : "0x095e7baea6a6c7c4c2dfeb977efac326af552d87",
                        "v" : "0x1c",
                        "value" : "0x0186a0"
                    }
                ],
                "uncleHeaders" : [
                ]
            }
        ],
        "genesisBlockHeader" : {
            "bloom" : "0x00000000000000000000000000000000000000000000000000000000000000000000000000000000000000000000000000000000000000000000000000000000000000000000000000000000000000000000000000000000000000000000000000000000000000000000000000000000000000000000000000000000000000000000000000000000000000000000000000000000000000000000000000000000000000000000000000000000000000000000000000000000000000000000000000000000000000000000000000000000000000000000000000000000000000000000000000000000000000000000000000000000000000000000000000000000",
            "coinbase" : "0x2adc25665018aa1fe0e6bc666dac8fc2697ff9ba",
            "difficulty" : "0x020000",
            "extraData" : "0x42",
            "gasLimit" : "0x989680",
            "gasUsed" : "0x00",
            "hash" : "0xaff3e71e431d5cd268328e1911d1ffc911a2f5e8204fb319753662428092560f",
            "mixHash" : "0x56e81f171bcc55a6ff8345e692c0f86e5b48e01b996cadc001622fb5e363b421",
            "nonce" : "0x0102030405060708",
            "number" : "0x00",
            "parentHash" : "0x0000000000000000000000000000000000000000000000000000000000000000",
            "receiptTrie" : "0x56e81f171bcc55a6ff8345e692c0f86e5b48e01b996cadc001622fb5e363b421",
            "stateRoot" : "0x66ba9574bb912bef83ad9dd7722e968c2facf620a8770d317f66864dd6638cfe",
            "timestamp" : "0x03b6",
            "transactionsTrie" : "0x56e81f171bcc55a6ff8345e692c0f86e5b48e01b996cadc001622fb5e363b421",
            "uncleHash" : "0x1dcc4de8dec75d7aab85b567b6ccd41ad312451b948a7413f0a142fd40d49347"
        },
        "genesisRLP" : "0xf901faf901f5a00000000000000000000000000000000000000000000000000000000000000000a01dcc4de8dec75d7aab85b567b6ccd41ad312451b948a7413f0a142fd40d49347942adc25665018aa1fe0e6bc666dac8fc2697ff9baa066ba9574bb912bef83ad9dd7722e968c2facf620a8770d317f66864dd6638cfea056e81f171bcc55a6ff8345e692c0f86e5b48e01b996cadc001622fb5e363b421a056e81f171bcc55a6ff8345e692c0f86e5b48e01b996cadc001622fb5e363b421b9010000000000000000000000000000000000000000000000000000000000000000000000000000000000000000000000000000000000000000000000000000000000000000000000000000000000000000000000000000000000000000000000000000000000000000000000000000000000000000000000000000000000000000000000000000000000000000000000000000000000000000000000000000000000000000000000000000000000000000000000000000000000000000000000000000000000000000000000000000000000000000000000000000000000000000000000000000000000000000000000000000000000000000000000000000000000830200008083989680808203b642a056e81f171bcc55a6ff8345e692c0f86e5b48e01b996cadc001622fb5e363b421880102030405060708c0c0",
        "lastblockhash" : "0x0c8e06e6858861c96cd367a6837b6cebf2c5b998b76501d70b1b5995cd5e998f",
        "network" : "EIP158",
        "postState" : {
            "0x095e7baea6a6c7c4c2dfeb977efac326af552d87" : {
                "balance" : "0x0132b3a0",
                "code" : "0x7fffffffffffffffffffffffffffffffffffffffffffffffffffffffffffffffff6000526020600060206000600060046011f1600255600051600055",
                "nonce" : "0x00",
                "storage" : {
                    "0x00" : "0xffffffffffffffffffffffffffffffffffffffffffffffffffffffffffffffff"
                }
            },
            "0x2adc25665018aa1fe0e6bc666dac8fc2697ff9ba" : {
                "balance" : "0x4563918244f4b6aa",
                "code" : "",
                "nonce" : "0x00",
                "storage" : {
                }
            },
            "0xa94f5374fce5edbc8e2a8697c15331677e6ebf0b" : {
                "balance" : "0x0de0b6b3a761c2b6",
                "code" : "",
                "nonce" : "0x01",
                "storage" : {
                }
            }
        },
        "pre" : {
            "0x095e7baea6a6c7c4c2dfeb977efac326af552d87" : {
                "balance" : "0x01312d00",
                "code" : "0x7fffffffffffffffffffffffffffffffffffffffffffffffffffffffffffffffff6000526020600060206000600060046011f1600255600051600055",
                "nonce" : "0x00",
                "storage" : {
                }
            },
            "0xa94f5374fce5edbc8e2a8697c15331677e6ebf0b" : {
                "balance" : "0x0de0b6b3a7640000",
                "code" : "",
                "nonce" : "0x00",
                "storage" : {
                }
            }
        }
    },
    "CallIdentity_4_gas17_d0g0v0_Frontier" : {
        "blocks" : [
            {
                "blockHeader" : {
                    "bloom" : "0x00000000000000000000000000000000000000000000000000000000000000000000000000000000000000000000000000000000000000000000000000000000000000000000000000000000000000000000000000000000000000000000000000000000000000000000000000000000000000000000000000000000000000000000000000000000000000000000000000000000000000000000000000000000000000000000000000000000000000000000000000000000000000000000000000000000000000000000000000000000000000000000000000000000000000000000000000000000000000000000000000000000000000000000000000000000",
                    "coinbase" : "0x2adc25665018aa1fe0e6bc666dac8fc2697ff9ba",
                    "difficulty" : "0x020000",
                    "extraData" : "",
                    "gasLimit" : "0x989680",
                    "gasUsed" : "0x0115be",
                    "hash" : "0x0b7c8fc144f3283b5a7d2706708ddfe9620e4cb173fdfc057b5df4ddeeff21da",
                    "mixHash" : "0x63546bd95155eaba6ca92a7cea68b2ea4ed9bf951c94791aac102e17b2921dc9",
                    "nonce" : "0x85dd8029dfdd091c",
                    "number" : "0x01",
                    "parentHash" : "0xaff3e71e431d5cd268328e1911d1ffc911a2f5e8204fb319753662428092560f",
                    "receiptTrie" : "0x82ac15bc3c3bd265871b5dfa63dddef7da82c082faa0c488eeb567d7fec7d0af",
                    "stateRoot" : "0x938f38d8b59105a80ba91ff77fb3b5fb4199faaf16646243e316de46a7025c4a",
                    "timestamp" : "0x03e8",
                    "transactionsTrie" : "0x98fa170d192a6eff341cc8b8392cf1c8256997c28117ae4c20481271ffe00b0b",
                    "uncleHash" : "0x1dcc4de8dec75d7aab85b567b6ccd41ad312451b948a7413f0a142fd40d49347"
                },
                "rlp" : "0xf90263f901f8a0aff3e71e431d5cd268328e1911d1ffc911a2f5e8204fb319753662428092560fa01dcc4de8dec75d7aab85b567b6ccd41ad312451b948a7413f0a142fd40d49347942adc25665018aa1fe0e6bc666dac8fc2697ff9baa0938f38d8b59105a80ba91ff77fb3b5fb4199faaf16646243e316de46a7025c4aa098fa170d192a6eff341cc8b8392cf1c8256997c28117ae4c20481271ffe00b0ba082ac15bc3c3bd265871b5dfa63dddef7da82c082faa0c488eeb567d7fec7d0afb9010000000000000000000000000000000000000000000000000000000000000000000000000000000000000000000000000000000000000000000000000000000000000000000000000000000000000000000000000000000000000000000000000000000000000000000000000000000000000000000000000000000000000000000000000000000000000000000000000000000000000000000000000000000000000000000000000000000000000000000000000000000000000000000000000000000000000000000000000000000000000000000000000000000000000000000000000000000000000000000000000000000000000000000000000000000000830200000183989680830115be8203e880a063546bd95155eaba6ca92a7cea68b2ea4ed9bf951c94791aac102e17b2921dc98885dd8029dfdd091cf865f8638001830592a894095e7baea6a6c7c4c2dfeb977efac326af552d87830186a0801ca082cfe09a590896d5e895674505c40f1701ab05245f9f568bf506b9558e61c67fa04a98fee75f6fbf3fa4b3e104a9bb7283a6e076670719bac8af481531151b7b3cc0",
                "transactions" : [
                    {
                        "data" : "",
                        "gasLimit" : "0x0592a8",
                        "gasPrice" : "0x01",
                        "nonce" : "0x00",
                        "r" : "0x82cfe09a590896d5e895674505c40f1701ab05245f9f568bf506b9558e61c67f",
                        "s" : "0x4a98fee75f6fbf3fa4b3e104a9bb7283a6e076670719bac8af481531151b7b3c",
                        "to" : "0x095e7baea6a6c7c4c2dfeb977efac326af552d87",
                        "v" : "0x1c",
                        "value" : "0x0186a0"
                    }
                ],
                "uncleHeaders" : [
                ]
            }
        ],
        "genesisBlockHeader" : {
            "bloom" : "0x00000000000000000000000000000000000000000000000000000000000000000000000000000000000000000000000000000000000000000000000000000000000000000000000000000000000000000000000000000000000000000000000000000000000000000000000000000000000000000000000000000000000000000000000000000000000000000000000000000000000000000000000000000000000000000000000000000000000000000000000000000000000000000000000000000000000000000000000000000000000000000000000000000000000000000000000000000000000000000000000000000000000000000000000000000000",
            "coinbase" : "0x2adc25665018aa1fe0e6bc666dac8fc2697ff9ba",
            "difficulty" : "0x020000",
            "extraData" : "0x42",
            "gasLimit" : "0x989680",
            "gasUsed" : "0x00",
            "hash" : "0xaff3e71e431d5cd268328e1911d1ffc911a2f5e8204fb319753662428092560f",
            "mixHash" : "0x56e81f171bcc55a6ff8345e692c0f86e5b48e01b996cadc001622fb5e363b421",
            "nonce" : "0x0102030405060708",
            "number" : "0x00",
            "parentHash" : "0x0000000000000000000000000000000000000000000000000000000000000000",
            "receiptTrie" : "0x56e81f171bcc55a6ff8345e692c0f86e5b48e01b996cadc001622fb5e363b421",
            "stateRoot" : "0x66ba9574bb912bef83ad9dd7722e968c2facf620a8770d317f66864dd6638cfe",
            "timestamp" : "0x03b6",
            "transactionsTrie" : "0x56e81f171bcc55a6ff8345e692c0f86e5b48e01b996cadc001622fb5e363b421",
            "uncleHash" : "0x1dcc4de8dec75d7aab85b567b6ccd41ad312451b948a7413f0a142fd40d49347"
        },
        "genesisRLP" : "0xf901faf901f5a00000000000000000000000000000000000000000000000000000000000000000a01dcc4de8dec75d7aab85b567b6ccd41ad312451b948a7413f0a142fd40d49347942adc25665018aa1fe0e6bc666dac8fc2697ff9baa066ba9574bb912bef83ad9dd7722e968c2facf620a8770d317f66864dd6638cfea056e81f171bcc55a6ff8345e692c0f86e5b48e01b996cadc001622fb5e363b421a056e81f171bcc55a6ff8345e692c0f86e5b48e01b996cadc001622fb5e363b421b9010000000000000000000000000000000000000000000000000000000000000000000000000000000000000000000000000000000000000000000000000000000000000000000000000000000000000000000000000000000000000000000000000000000000000000000000000000000000000000000000000000000000000000000000000000000000000000000000000000000000000000000000000000000000000000000000000000000000000000000000000000000000000000000000000000000000000000000000000000000000000000000000000000000000000000000000000000000000000000000000000000000000000000000000000000000000830200008083989680808203b642a056e81f171bcc55a6ff8345e692c0f86e5b48e01b996cadc001622fb5e363b421880102030405060708c0c0",
        "lastblockhash" : "0x0b7c8fc144f3283b5a7d2706708ddfe9620e4cb173fdfc057b5df4ddeeff21da",
        "network" : "Frontier",
        "postState" : {
            "0x095e7baea6a6c7c4c2dfeb977efac326af552d87" : {
                "balance" : "0x0132b3a0",
                "code" : "0x7fffffffffffffffffffffffffffffffffffffffffffffffffffffffffffffffff6000526020600060206000600060046011f1600255600051600055",
                "nonce" : "0x00",
                "storage" : {
                    "0x00" : "0xffffffffffffffffffffffffffffffffffffffffffffffffffffffffffffffff"
                }
            },
            "0x2adc25665018aa1fe0e6bc666dac8fc2697ff9ba" : {
                "balance" : "0x4563918244f515be",
                "code" : "",
                "nonce" : "0x00",
                "storage" : {
                }
            },
            "0xa94f5374fce5edbc8e2a8697c15331677e6ebf0b" : {
                "balance" : "0x0de0b6b3a76163a2",
                "code" : "",
                "nonce" : "0x01",
                "storage" : {
                }
            }
        },
        "pre" : {
            "0x095e7baea6a6c7c4c2dfeb977efac326af552d87" : {
                "balance" : "0x01312d00",
                "code" : "0x7fffffffffffffffffffffffffffffffffffffffffffffffffffffffffffffffff6000526020600060206000600060046011f1600255600051600055",
                "nonce" : "0x00",
                "storage" : {
                }
            },
            "0xa94f5374fce5edbc8e2a8697c15331677e6ebf0b" : {
                "balance" : "0x0de0b6b3a7640000",
                "code" : "",
                "nonce" : "0x00",
                "storage" : {
                }
            }
        }
    },
    "CallIdentity_4_gas17_d0g0v0_Homestead" : {
        "blocks" : [
            {
                "blockHeader" : {
                    "bloom" : "0x00000000000000000000000000000000000000000000000000000000000000000000000000000000000000000000000000000000000000000000000000000000000000000000000000000000000000000000000000000000000000000000000000000000000000000000000000000000000000000000000000000000000000000000000000000000000000000000000000000000000000000000000000000000000000000000000000000000000000000000000000000000000000000000000000000000000000000000000000000000000000000000000000000000000000000000000000000000000000000000000000000000000000000000000000000000",
                    "coinbase" : "0x2adc25665018aa1fe0e6bc666dac8fc2697ff9ba",
                    "difficulty" : "0x020000",
                    "extraData" : "",
                    "gasLimit" : "0x989680",
                    "gasUsed" : "0x0115be",
                    "hash" : "0x6a9c4a2bedaaae6f71177dd595dbb75208d2b3e5684ed312e7429b0a903eef49",
                    "mixHash" : "0x2a89b2dd1f9cab351eb768604c6135ceb4e96af2b7aff768b5a66be6cd172f24",
                    "nonce" : "0x959537c0fa426b5a",
                    "number" : "0x01",
                    "parentHash" : "0xaff3e71e431d5cd268328e1911d1ffc911a2f5e8204fb319753662428092560f",
                    "receiptTrie" : "0x82ac15bc3c3bd265871b5dfa63dddef7da82c082faa0c488eeb567d7fec7d0af",
                    "stateRoot" : "0x938f38d8b59105a80ba91ff77fb3b5fb4199faaf16646243e316de46a7025c4a",
                    "timestamp" : "0x03e8",
                    "transactionsTrie" : "0x98fa170d192a6eff341cc8b8392cf1c8256997c28117ae4c20481271ffe00b0b",
                    "uncleHash" : "0x1dcc4de8dec75d7aab85b567b6ccd41ad312451b948a7413f0a142fd40d49347"
                },
                "rlp" : "0xf90263f901f8a0aff3e71e431d5cd268328e1911d1ffc911a2f5e8204fb319753662428092560fa01dcc4de8dec75d7aab85b567b6ccd41ad312451b948a7413f0a142fd40d49347942adc25665018aa1fe0e6bc666dac8fc2697ff9baa0938f38d8b59105a80ba91ff77fb3b5fb4199faaf16646243e316de46a7025c4aa098fa170d192a6eff341cc8b8392cf1c8256997c28117ae4c20481271ffe00b0ba082ac15bc3c3bd265871b5dfa63dddef7da82c082faa0c488eeb567d7fec7d0afb9010000000000000000000000000000000000000000000000000000000000000000000000000000000000000000000000000000000000000000000000000000000000000000000000000000000000000000000000000000000000000000000000000000000000000000000000000000000000000000000000000000000000000000000000000000000000000000000000000000000000000000000000000000000000000000000000000000000000000000000000000000000000000000000000000000000000000000000000000000000000000000000000000000000000000000000000000000000000000000000000000000000000000000000000000000000000830200000183989680830115be8203e880a02a89b2dd1f9cab351eb768604c6135ceb4e96af2b7aff768b5a66be6cd172f2488959537c0fa426b5af865f8638001830592a894095e7baea6a6c7c4c2dfeb977efac326af552d87830186a0801ca082cfe09a590896d5e895674505c40f1701ab05245f9f568bf506b9558e61c67fa04a98fee75f6fbf3fa4b3e104a9bb7283a6e076670719bac8af481531151b7b3cc0",
                "transactions" : [
                    {
                        "data" : "",
                        "gasLimit" : "0x0592a8",
                        "gasPrice" : "0x01",
                        "nonce" : "0x00",
                        "r" : "0x82cfe09a590896d5e895674505c40f1701ab05245f9f568bf506b9558e61c67f",
                        "s" : "0x4a98fee75f6fbf3fa4b3e104a9bb7283a6e076670719bac8af481531151b7b3c",
                        "to" : "0x095e7baea6a6c7c4c2dfeb977efac326af552d87",
                        "v" : "0x1c",
                        "value" : "0x0186a0"
                    }
                ],
                "uncleHeaders" : [
                ]
            }
        ],
        "genesisBlockHeader" : {
            "bloom" : "0x00000000000000000000000000000000000000000000000000000000000000000000000000000000000000000000000000000000000000000000000000000000000000000000000000000000000000000000000000000000000000000000000000000000000000000000000000000000000000000000000000000000000000000000000000000000000000000000000000000000000000000000000000000000000000000000000000000000000000000000000000000000000000000000000000000000000000000000000000000000000000000000000000000000000000000000000000000000000000000000000000000000000000000000000000000000",
            "coinbase" : "0x2adc25665018aa1fe0e6bc666dac8fc2697ff9ba",
            "difficulty" : "0x020000",
            "extraData" : "0x42",
            "gasLimit" : "0x989680",
            "gasUsed" : "0x00",
            "hash" : "0xaff3e71e431d5cd268328e1911d1ffc911a2f5e8204fb319753662428092560f",
            "mixHash" : "0x56e81f171bcc55a6ff8345e692c0f86e5b48e01b996cadc001622fb5e363b421",
            "nonce" : "0x0102030405060708",
            "number" : "0x00",
            "parentHash" : "0x0000000000000000000000000000000000000000000000000000000000000000",
            "receiptTrie" : "0x56e81f171bcc55a6ff8345e692c0f86e5b48e01b996cadc001622fb5e363b421",
            "stateRoot" : "0x66ba9574bb912bef83ad9dd7722e968c2facf620a8770d317f66864dd6638cfe",
            "timestamp" : "0x03b6",
            "transactionsTrie" : "0x56e81f171bcc55a6ff8345e692c0f86e5b48e01b996cadc001622fb5e363b421",
            "uncleHash" : "0x1dcc4de8dec75d7aab85b567b6ccd41ad312451b948a7413f0a142fd40d49347"
        },
        "genesisRLP" : "0xf901faf901f5a00000000000000000000000000000000000000000000000000000000000000000a01dcc4de8dec75d7aab85b567b6ccd41ad312451b948a7413f0a142fd40d49347942adc25665018aa1fe0e6bc666dac8fc2697ff9baa066ba9574bb912bef83ad9dd7722e968c2facf620a8770d317f66864dd6638cfea056e81f171bcc55a6ff8345e692c0f86e5b48e01b996cadc001622fb5e363b421a056e81f171bcc55a6ff8345e692c0f86e5b48e01b996cadc001622fb5e363b421b9010000000000000000000000000000000000000000000000000000000000000000000000000000000000000000000000000000000000000000000000000000000000000000000000000000000000000000000000000000000000000000000000000000000000000000000000000000000000000000000000000000000000000000000000000000000000000000000000000000000000000000000000000000000000000000000000000000000000000000000000000000000000000000000000000000000000000000000000000000000000000000000000000000000000000000000000000000000000000000000000000000000000000000000000000000000000830200008083989680808203b642a056e81f171bcc55a6ff8345e692c0f86e5b48e01b996cadc001622fb5e363b421880102030405060708c0c0",
        "lastblockhash" : "0x6a9c4a2bedaaae6f71177dd595dbb75208d2b3e5684ed312e7429b0a903eef49",
        "network" : "Homestead",
        "postState" : {
            "0x095e7baea6a6c7c4c2dfeb977efac326af552d87" : {
                "balance" : "0x0132b3a0",
                "code" : "0x7fffffffffffffffffffffffffffffffffffffffffffffffffffffffffffffffff6000526020600060206000600060046011f1600255600051600055",
                "nonce" : "0x00",
                "storage" : {
                    "0x00" : "0xffffffffffffffffffffffffffffffffffffffffffffffffffffffffffffffff"
                }
            },
            "0x2adc25665018aa1fe0e6bc666dac8fc2697ff9ba" : {
                "balance" : "0x4563918244f515be",
                "code" : "",
                "nonce" : "0x00",
                "storage" : {
                }
            },
            "0xa94f5374fce5edbc8e2a8697c15331677e6ebf0b" : {
                "balance" : "0x0de0b6b3a76163a2",
                "code" : "",
                "nonce" : "0x01",
                "storage" : {
                }
            }
        },
        "pre" : {
            "0x095e7baea6a6c7c4c2dfeb977efac326af552d87" : {
                "balance" : "0x01312d00",
                "code" : "0x7fffffffffffffffffffffffffffffffffffffffffffffffffffffffffffffffff6000526020600060206000600060046011f1600255600051600055",
                "nonce" : "0x00",
                "storage" : {
                }
            },
            "0xa94f5374fce5edbc8e2a8697c15331677e6ebf0b" : {
                "balance" : "0x0de0b6b3a7640000",
                "code" : "",
                "nonce" : "0x00",
                "storage" : {
                }
            }
        }
    },
    "CallIdentity_4_gas17_d0g0v0_Metropolis" : {
        "blocks" : [
            {
                "blockHeader" : {
                    "bloom" : "0x00000000000000000000000000000000000000000000000000000000000000000000000000000000000000000000000000000000000000000000000000000000000000000000000000000000000000000000000000000000000000000000000000000000000000000000000000000000000000000000000000000000000000000000000000000000000000000000000000000000000000000000000000000000000000000000000000000000000000000000000000000000000000000000000000000000000000000000000000000000000000000000000000000000000000000000000000000000000000000000000000000000000000000000000000000000",
                    "coinbase" : "0x2adc25665018aa1fe0e6bc666dac8fc2697ff9ba",
                    "difficulty" : "0x020000",
                    "extraData" : "",
                    "gasLimit" : "0x989680",
                    "gasUsed" : "0xb6aa",
                    "hash" : "0x8f216db94427afede81cfa23c9078ca334a6f96a095ab7f31b7730144169c132",
                    "mixHash" : "0x067e586bd9629667824b92269c730e850fba3e64b3e188a0d77fc593ff3c5573",
                    "nonce" : "0x4947683946a5f5e3",
                    "number" : "0x01",
                    "parentHash" : "0xaff3e71e431d5cd268328e1911d1ffc911a2f5e8204fb319753662428092560f",
                    "receiptTrie" : "0x532195a3e6bcddf1eb491dc88b64020f8f3ad031df73ae0348783f698d871472",
                    "stateRoot" : "0x61eea0cf29972e6d5dd88f65fc2215286cc052e3d531dd2565b956f7bbe6248f",
                    "timestamp" : "0x03e8",
                    "transactionsTrie" : "0x98fa170d192a6eff341cc8b8392cf1c8256997c28117ae4c20481271ffe00b0b",
                    "uncleHash" : "0x1dcc4de8dec75d7aab85b567b6ccd41ad312451b948a7413f0a142fd40d49347"
                },
                "rlp" : "0xf90262f901f7a0aff3e71e431d5cd268328e1911d1ffc911a2f5e8204fb319753662428092560fa01dcc4de8dec75d7aab85b567b6ccd41ad312451b948a7413f0a142fd40d49347942adc25665018aa1fe0e6bc666dac8fc2697ff9baa061eea0cf29972e6d5dd88f65fc2215286cc052e3d531dd2565b956f7bbe6248fa098fa170d192a6eff341cc8b8392cf1c8256997c28117ae4c20481271ffe00b0ba0532195a3e6bcddf1eb491dc88b64020f8f3ad031df73ae0348783f698d871472b901000000000000000000000000000000000000000000000000000000000000000000000000000000000000000000000000000000000000000000000000000000000000000000000000000000000000000000000000000000000000000000000000000000000000000000000000000000000000000000000000000000000000000000000000000000000000000000000000000000000000000000000000000000000000000000000000000000000000000000000000000000000000000000000000000000000000000000000000000000000000000000000000000000000000000000000000000000000000000000000000000000000000000000000000000000000083020000018398968082b6aa8203e880a0067e586bd9629667824b92269c730e850fba3e64b3e188a0d77fc593ff3c5573884947683946a5f5e3f865f8638001830592a894095e7baea6a6c7c4c2dfeb977efac326af552d87830186a0801ca082cfe09a590896d5e895674505c40f1701ab05245f9f568bf506b9558e61c67fa04a98fee75f6fbf3fa4b3e104a9bb7283a6e076670719bac8af481531151b7b3cc0",
                "transactions" : [
                    {
                        "data" : "",
                        "gasLimit" : "0x0592a8",
                        "gasPrice" : "0x01",
                        "nonce" : "0x00",
                        "r" : "0x82cfe09a590896d5e895674505c40f1701ab05245f9f568bf506b9558e61c67f",
                        "s" : "0x4a98fee75f6fbf3fa4b3e104a9bb7283a6e076670719bac8af481531151b7b3c",
                        "to" : "0x095e7baea6a6c7c4c2dfeb977efac326af552d87",
                        "v" : "0x1c",
                        "value" : "0x0186a0"
                    }
                ],
                "uncleHeaders" : [
                ]
            }
        ],
        "genesisBlockHeader" : {
            "bloom" : "0x00000000000000000000000000000000000000000000000000000000000000000000000000000000000000000000000000000000000000000000000000000000000000000000000000000000000000000000000000000000000000000000000000000000000000000000000000000000000000000000000000000000000000000000000000000000000000000000000000000000000000000000000000000000000000000000000000000000000000000000000000000000000000000000000000000000000000000000000000000000000000000000000000000000000000000000000000000000000000000000000000000000000000000000000000000000",
            "coinbase" : "0x2adc25665018aa1fe0e6bc666dac8fc2697ff9ba",
            "difficulty" : "0x020000",
            "extraData" : "0x42",
            "gasLimit" : "0x989680",
            "gasUsed" : "0x00",
            "hash" : "0xaff3e71e431d5cd268328e1911d1ffc911a2f5e8204fb319753662428092560f",
            "mixHash" : "0x56e81f171bcc55a6ff8345e692c0f86e5b48e01b996cadc001622fb5e363b421",
            "nonce" : "0x0102030405060708",
            "number" : "0x00",
            "parentHash" : "0x0000000000000000000000000000000000000000000000000000000000000000",
            "receiptTrie" : "0x56e81f171bcc55a6ff8345e692c0f86e5b48e01b996cadc001622fb5e363b421",
            "stateRoot" : "0x66ba9574bb912bef83ad9dd7722e968c2facf620a8770d317f66864dd6638cfe",
            "timestamp" : "0x03b6",
            "transactionsTrie" : "0x56e81f171bcc55a6ff8345e692c0f86e5b48e01b996cadc001622fb5e363b421",
            "uncleHash" : "0x1dcc4de8dec75d7aab85b567b6ccd41ad312451b948a7413f0a142fd40d49347"
        },
        "genesisRLP" : "0xf901faf901f5a00000000000000000000000000000000000000000000000000000000000000000a01dcc4de8dec75d7aab85b567b6ccd41ad312451b948a7413f0a142fd40d49347942adc25665018aa1fe0e6bc666dac8fc2697ff9baa066ba9574bb912bef83ad9dd7722e968c2facf620a8770d317f66864dd6638cfea056e81f171bcc55a6ff8345e692c0f86e5b48e01b996cadc001622fb5e363b421a056e81f171bcc55a6ff8345e692c0f86e5b48e01b996cadc001622fb5e363b421b9010000000000000000000000000000000000000000000000000000000000000000000000000000000000000000000000000000000000000000000000000000000000000000000000000000000000000000000000000000000000000000000000000000000000000000000000000000000000000000000000000000000000000000000000000000000000000000000000000000000000000000000000000000000000000000000000000000000000000000000000000000000000000000000000000000000000000000000000000000000000000000000000000000000000000000000000000000000000000000000000000000000000000000000000000000000000830200008083989680808203b642a056e81f171bcc55a6ff8345e692c0f86e5b48e01b996cadc001622fb5e363b421880102030405060708c0c0",
        "lastblockhash" : "0x8f216db94427afede81cfa23c9078ca334a6f96a095ab7f31b7730144169c132",
        "network" : "Metropolis",
        "postState" : {
            "0x00000000000000000000000000000000000000f0" : {
                "balance" : "0x00",
                "code" : "",
                "nonce" : "0x00",
                "storage" : {
                }
            },
            "0x095e7baea6a6c7c4c2dfeb977efac326af552d87" : {
                "balance" : "0x0132b3a0",
                "code" : "0x7fffffffffffffffffffffffffffffffffffffffffffffffffffffffffffffffff6000526020600060206000600060046011f1600255600051600055",
                "nonce" : "0x00",
                "storage" : {
                    "0x00" : "0xffffffffffffffffffffffffffffffffffffffffffffffffffffffffffffffff"
                }
            },
            "0x2adc25665018aa1fe0e6bc666dac8fc2697ff9ba" : {
                "balance" : "0x4563918244f4b6aa",
                "code" : "",
                "nonce" : "0x00",
                "storage" : {
                }
            },
            "0xa94f5374fce5edbc8e2a8697c15331677e6ebf0b" : {
                "balance" : "0x0de0b6b3a761c2b6",
                "code" : "",
                "nonce" : "0x01",
                "storage" : {
                }
            }
        },
        "pre" : {
            "0x095e7baea6a6c7c4c2dfeb977efac326af552d87" : {
                "balance" : "0x01312d00",
                "code" : "0x7fffffffffffffffffffffffffffffffffffffffffffffffffffffffffffffffff6000526020600060206000600060046011f1600255600051600055",
                "nonce" : "0x00",
                "storage" : {
                }
            },
            "0xa94f5374fce5edbc8e2a8697c15331677e6ebf0b" : {
                "balance" : "0x0de0b6b3a7640000",
                "code" : "",
                "nonce" : "0x00",
                "storage" : {
                }
            }
        }
    }
}