{
    "sec80_d0g0v0_EIP150" : {
        "blocks" : [
            {
                "blockHeader" : {
                    "bloom" : "0x00000000000000000000000000000000000000000000000000000000000000000000000000000000000000000000000000000000000000000000000000000000000000000000000000000000000000000000000000000000000000000000000000000000000000000000000000000000000000000000000000000000000000000000000000000000000000000000000000000000000000000000000000000000000000000000000000000000000000000000000000000000000000000000000000000000000000000000000000000000000000000000000000000000000000000000000000000000000000000000000000000000000000000000000000000000",
                    "coinbase" : "0x2adc25665018aa1fe0e6bc666dac8fc2697ff9ba",
                    "difficulty" : "0x020000",
                    "extraData" : "",
                    "gasLimit" : "0x989680",
                    "gasUsed" : "0xaf2d",
                    "hash" : "0x1d3afceb06f35f7b84b795f0936fddb1aa98cdcd4e045e5e3d095ba7ef7e0378",
                    "mixHash" : "0x05cc7674af6f27d8bd8427a9c5490db2d0ebd332eb10b4a55168dd8bb5b49081",
                    "nonce" : "0x5bb2afa062480617",
                    "number" : "0x01",
                    "parentHash" : "0x685e58a31539f57e51f4ae36f8e1559aa3d9f52b8a0dcdf5d545066111701abf",
                    "receiptTrie" : "0x46f10f0f8ccd6ac607124cf3409bfb6b15029c132e210438999f7fd81171bb4c",
                    "stateRoot" : "0x48570c0e86f5bec15ac3a6453d0acd2736e0eecd350bf5e19e24bf616875993c",
                    "timestamp" : "0x03e8",
                    "transactionsTrie" : "0x138e622ff34e8a4bed7c2631ee946b094d23bd208e8285e710fc5fa254318627",
                    "uncleHash" : "0x1dcc4de8dec75d7aab85b567b6ccd41ad312451b948a7413f0a142fd40d49347"
                },
                "rlp" : "0xf90262f901f7a0685e58a31539f57e51f4ae36f8e1559aa3d9f52b8a0dcdf5d545066111701abfa01dcc4de8dec75d7aab85b567b6ccd41ad312451b948a7413f0a142fd40d49347942adc25665018aa1fe0e6bc666dac8fc2697ff9baa048570c0e86f5bec15ac3a6453d0acd2736e0eecd350bf5e19e24bf616875993ca0138e622ff34e8a4bed7c2631ee946b094d23bd208e8285e710fc5fa254318627a046f10f0f8ccd6ac607124cf3409bfb6b15029c132e210438999f7fd81171bb4cb901000000000000000000000000000000000000000000000000000000000000000000000000000000000000000000000000000000000000000000000000000000000000000000000000000000000000000000000000000000000000000000000000000000000000000000000000000000000000000000000000000000000000000000000000000000000000000000000000000000000000000000000000000000000000000000000000000000000000000000000000000000000000000000000000000000000000000000000000000000000000000000000000000000000000000000000000000000000000000000000000000000000000000000000000000000000083020000018398968082af2d8203e880a005cc7674af6f27d8bd8427a9c5490db2d0ebd332eb10b4a55168dd8bb5b49081885bb2afa062480617f865f86380018398968094095e7baea6a6c7c4c2dfeb977efac326af552d87830186a0801ca0c8c5469bcab2d89c9083cecdf26c9d3a9e40597d1d82744bc0e5e582f9dc48a4a0433eb07127e317522d4e08b89cd3824eee8bf1c75a2871db940e0c54d0dd09d2c0",
                "transactions" : [
                    {
                        "data" : "",
                        "gasLimit" : "0x989680",
                        "gasPrice" : "0x01",
                        "nonce" : "0x00",
                        "r" : "0xc8c5469bcab2d89c9083cecdf26c9d3a9e40597d1d82744bc0e5e582f9dc48a4",
                        "s" : "0x433eb07127e317522d4e08b89cd3824eee8bf1c75a2871db940e0c54d0dd09d2",
                        "to" : "0x095e7baea6a6c7c4c2dfeb977efac326af552d87",
                        "v" : "0x1c",
                        "value" : "0x0186a0"
                    }
                ],
                "uncleHeaders" : [
                ]
            }
        ],
        "genesisBlockHeader" : {
            "bloom" : "0x00000000000000000000000000000000000000000000000000000000000000000000000000000000000000000000000000000000000000000000000000000000000000000000000000000000000000000000000000000000000000000000000000000000000000000000000000000000000000000000000000000000000000000000000000000000000000000000000000000000000000000000000000000000000000000000000000000000000000000000000000000000000000000000000000000000000000000000000000000000000000000000000000000000000000000000000000000000000000000000000000000000000000000000000000000000",
            "coinbase" : "0x2adc25665018aa1fe0e6bc666dac8fc2697ff9ba",
            "difficulty" : "0x020000",
            "extraData" : "0x42",
            "gasLimit" : "0x989680",
            "gasUsed" : "0x00",
            "hash" : "0x685e58a31539f57e51f4ae36f8e1559aa3d9f52b8a0dcdf5d545066111701abf",
            "mixHash" : "0x56e81f171bcc55a6ff8345e692c0f86e5b48e01b996cadc001622fb5e363b421",
            "nonce" : "0x0102030405060708",
            "number" : "0x00",
            "parentHash" : "0x0000000000000000000000000000000000000000000000000000000000000000",
            "receiptTrie" : "0x56e81f171bcc55a6ff8345e692c0f86e5b48e01b996cadc001622fb5e363b421",
            "stateRoot" : "0x25a4db33e2f4a0ef769302c3d94763756cd510430bdb2419ca098625180e2846",
            "timestamp" : "0x03b6",
            "transactionsTrie" : "0x56e81f171bcc55a6ff8345e692c0f86e5b48e01b996cadc001622fb5e363b421",
            "uncleHash" : "0x1dcc4de8dec75d7aab85b567b6ccd41ad312451b948a7413f0a142fd40d49347"
        },
        "genesisRLP" : "0xf901faf901f5a00000000000000000000000000000000000000000000000000000000000000000a01dcc4de8dec75d7aab85b567b6ccd41ad312451b948a7413f0a142fd40d49347942adc25665018aa1fe0e6bc666dac8fc2697ff9baa025a4db33e2f4a0ef769302c3d94763756cd510430bdb2419ca098625180e2846a056e81f171bcc55a6ff8345e692c0f86e5b48e01b996cadc001622fb5e363b421a056e81f171bcc55a6ff8345e692c0f86e5b48e01b996cadc001622fb5e363b421b9010000000000000000000000000000000000000000000000000000000000000000000000000000000000000000000000000000000000000000000000000000000000000000000000000000000000000000000000000000000000000000000000000000000000000000000000000000000000000000000000000000000000000000000000000000000000000000000000000000000000000000000000000000000000000000000000000000000000000000000000000000000000000000000000000000000000000000000000000000000000000000000000000000000000000000000000000000000000000000000000000000000000000000000000000000000000830200008083989680808203b642a056e81f171bcc55a6ff8345e692c0f86e5b48e01b996cadc001622fb5e363b421880102030405060708c0c0",
        "lastblockhash" : "0x1d3afceb06f35f7b84b795f0936fddb1aa98cdcd4e045e5e3d095ba7ef7e0378",
        "network" : "EIP150",
        "postState" : {
            "0x095e7baea6a6c7c4c2dfeb977efac326af552d87" : {
                "balance" : "0x0132b3a0",
                "code" : "0x601b565b6000555b005b630badf00d6003565b63c001f00d6003565b7319e7e376e7c213b7e7e7e46cc70a5dd086daff2a7f22ae6da6b482f9b1b19b0b897c3fd43884180a1c5ee361e1107a1bc635649dda600052601b603f537f16433dce375ce6dc8151d3f0a22728bc4a1d9fd6ed39dfd18b4609331937367f6040527f306964c0cf5d74f04129fdc60b54d35b596dde1bf89ad92cb4123318f4c0e40060605260206080607f60006000600161fffff21560075760805114601257600956",
                "nonce" : "0x00",
                "storage" : {
                    "0x00" : "0xc001f00d"
                }
            },
            "0x2adc25665018aa1fe0e6bc666dac8fc2697ff9ba" : {
                "balance" : "0x4563918244f4af2d",
                "code" : "",
                "nonce" : "0x00",
                "storage" : {
                }
            },
            "0xa94f5374fce5edbc8e2a8697c15331677e6ebf0b" : {
                "balance" : "0x0de0b6b3a761ca33",
                "code" : "",
                "nonce" : "0x01",
                "storage" : {
                }
            }
        },
        "pre" : {
            "0x095e7baea6a6c7c4c2dfeb977efac326af552d87" : {
                "balance" : "0x01312d00",
                "code" : "0x601b565b6000555b005b630badf00d6003565b63c001f00d6003565b7319e7e376e7c213b7e7e7e46cc70a5dd086daff2a7f22ae6da6b482f9b1b19b0b897c3fd43884180a1c5ee361e1107a1bc635649dda600052601b603f537f16433dce375ce6dc8151d3f0a22728bc4a1d9fd6ed39dfd18b4609331937367f6040527f306964c0cf5d74f04129fdc60b54d35b596dde1bf89ad92cb4123318f4c0e40060605260206080607f60006000600161fffff21560075760805114601257600956",
                "nonce" : "0x00",
                "storage" : {
                }
            },
            "0xa94f5374fce5edbc8e2a8697c15331677e6ebf0b" : {
                "balance" : "0x0de0b6b3a7640000",
                "code" : "",
                "nonce" : "0x00",
                "storage" : {
                }
            }
        }
    },
    "sec80_d0g0v0_EIP158" : {
        "blocks" : [
            {
                "blockHeader" : {
                    "bloom" : "0x00000000000000000000000000000000000000000000000000000000000000000000000000000000000000000000000000000000000000000000000000000000000000000000000000000000000000000000000000000000000000000000000000000000000000000000000000000000000000000000000000000000000000000000000000000000000000000000000000000000000000000000000000000000000000000000000000000000000000000000000000000000000000000000000000000000000000000000000000000000000000000000000000000000000000000000000000000000000000000000000000000000000000000000000000000000",
                    "coinbase" : "0x2adc25665018aa1fe0e6bc666dac8fc2697ff9ba",
                    "difficulty" : "0x020000",
                    "extraData" : "",
                    "gasLimit" : "0x989680",
                    "gasUsed" : "0xaf2d",
                    "hash" : "0x4ec0710c401beee491ddc05d079c10d49bdfae7a0dd2395a026fddcc35736816",
                    "mixHash" : "0x01288e791b6d67df0324d920a3a417feb59998ae9f616085367cc819a0d8d587",
                    "nonce" : "0x71927c622ea03ddd",
                    "number" : "0x01",
                    "parentHash" : "0x685e58a31539f57e51f4ae36f8e1559aa3d9f52b8a0dcdf5d545066111701abf",
                    "receiptTrie" : "0x46f10f0f8ccd6ac607124cf3409bfb6b15029c132e210438999f7fd81171bb4c",
                    "stateRoot" : "0x48570c0e86f5bec15ac3a6453d0acd2736e0eecd350bf5e19e24bf616875993c",
                    "timestamp" : "0x03e8",
                    "transactionsTrie" : "0x138e622ff34e8a4bed7c2631ee946b094d23bd208e8285e710fc5fa254318627",
                    "uncleHash" : "0x1dcc4de8dec75d7aab85b567b6ccd41ad312451b948a7413f0a142fd40d49347"
                },
                "rlp" : "0xf90262f901f7a0685e58a31539f57e51f4ae36f8e1559aa3d9f52b8a0dcdf5d545066111701abfa01dcc4de8dec75d7aab85b567b6ccd41ad312451b948a7413f0a142fd40d49347942adc25665018aa1fe0e6bc666dac8fc2697ff9baa048570c0e86f5bec15ac3a6453d0acd2736e0eecd350bf5e19e24bf616875993ca0138e622ff34e8a4bed7c2631ee946b094d23bd208e8285e710fc5fa254318627a046f10f0f8ccd6ac607124cf3409bfb6b15029c132e210438999f7fd81171bb4cb901000000000000000000000000000000000000000000000000000000000000000000000000000000000000000000000000000000000000000000000000000000000000000000000000000000000000000000000000000000000000000000000000000000000000000000000000000000000000000000000000000000000000000000000000000000000000000000000000000000000000000000000000000000000000000000000000000000000000000000000000000000000000000000000000000000000000000000000000000000000000000000000000000000000000000000000000000000000000000000000000000000000000000000000000000000000083020000018398968082af2d8203e880a001288e791b6d67df0324d920a3a417feb59998ae9f616085367cc819a0d8d5878871927c622ea03dddf865f86380018398968094095e7baea6a6c7c4c2dfeb977efac326af552d87830186a0801ca0c8c5469bcab2d89c9083cecdf26c9d3a9e40597d1d82744bc0e5e582f9dc48a4a0433eb07127e317522d4e08b89cd3824eee8bf1c75a2871db940e0c54d0dd09d2c0",
                "transactions" : [
                    {
                        "data" : "",
                        "gasLimit" : "0x989680",
                        "gasPrice" : "0x01",
                        "nonce" : "0x00",
                        "r" : "0xc8c5469bcab2d89c9083cecdf26c9d3a9e40597d1d82744bc0e5e582f9dc48a4",
                        "s" : "0x433eb07127e317522d4e08b89cd3824eee8bf1c75a2871db940e0c54d0dd09d2",
                        "to" : "0x095e7baea6a6c7c4c2dfeb977efac326af552d87",
                        "v" : "0x1c",
                        "value" : "0x0186a0"
                    }
                ],
                "uncleHeaders" : [
                ]
            }
        ],
        "genesisBlockHeader" : {
            "bloom" : "0x00000000000000000000000000000000000000000000000000000000000000000000000000000000000000000000000000000000000000000000000000000000000000000000000000000000000000000000000000000000000000000000000000000000000000000000000000000000000000000000000000000000000000000000000000000000000000000000000000000000000000000000000000000000000000000000000000000000000000000000000000000000000000000000000000000000000000000000000000000000000000000000000000000000000000000000000000000000000000000000000000000000000000000000000000000000",
            "coinbase" : "0x2adc25665018aa1fe0e6bc666dac8fc2697ff9ba",
            "difficulty" : "0x020000",
            "extraData" : "0x42",
            "gasLimit" : "0x989680",
            "gasUsed" : "0x00",
            "hash" : "0x685e58a31539f57e51f4ae36f8e1559aa3d9f52b8a0dcdf5d545066111701abf",
            "mixHash" : "0x56e81f171bcc55a6ff8345e692c0f86e5b48e01b996cadc001622fb5e363b421",
            "nonce" : "0x0102030405060708",
            "number" : "0x00",
            "parentHash" : "0x0000000000000000000000000000000000000000000000000000000000000000",
            "receiptTrie" : "0x56e81f171bcc55a6ff8345e692c0f86e5b48e01b996cadc001622fb5e363b421",
            "stateRoot" : "0x25a4db33e2f4a0ef769302c3d94763756cd510430bdb2419ca098625180e2846",
            "timestamp" : "0x03b6",
            "transactionsTrie" : "0x56e81f171bcc55a6ff8345e692c0f86e5b48e01b996cadc001622fb5e363b421",
            "uncleHash" : "0x1dcc4de8dec75d7aab85b567b6ccd41ad312451b948a7413f0a142fd40d49347"
        },
        "genesisRLP" : "0xf901faf901f5a00000000000000000000000000000000000000000000000000000000000000000a01dcc4de8dec75d7aab85b567b6ccd41ad312451b948a7413f0a142fd40d49347942adc25665018aa1fe0e6bc666dac8fc2697ff9baa025a4db33e2f4a0ef769302c3d94763756cd510430bdb2419ca098625180e2846a056e81f171bcc55a6ff8345e692c0f86e5b48e01b996cadc001622fb5e363b421a056e81f171bcc55a6ff8345e692c0f86e5b48e01b996cadc001622fb5e363b421b9010000000000000000000000000000000000000000000000000000000000000000000000000000000000000000000000000000000000000000000000000000000000000000000000000000000000000000000000000000000000000000000000000000000000000000000000000000000000000000000000000000000000000000000000000000000000000000000000000000000000000000000000000000000000000000000000000000000000000000000000000000000000000000000000000000000000000000000000000000000000000000000000000000000000000000000000000000000000000000000000000000000000000000000000000000000000830200008083989680808203b642a056e81f171bcc55a6ff8345e692c0f86e5b48e01b996cadc001622fb5e363b421880102030405060708c0c0",
        "lastblockhash" : "0x4ec0710c401beee491ddc05d079c10d49bdfae7a0dd2395a026fddcc35736816",
        "network" : "EIP158",
        "postState" : {
            "0x095e7baea6a6c7c4c2dfeb977efac326af552d87" : {
                "balance" : "0x0132b3a0",
                "code" : "0x601b565b6000555b005b630badf00d6003565b63c001f00d6003565b7319e7e376e7c213b7e7e7e46cc70a5dd086daff2a7f22ae6da6b482f9b1b19b0b897c3fd43884180a1c5ee361e1107a1bc635649dda600052601b603f537f16433dce375ce6dc8151d3f0a22728bc4a1d9fd6ed39dfd18b4609331937367f6040527f306964c0cf5d74f04129fdc60b54d35b596dde1bf89ad92cb4123318f4c0e40060605260206080607f60006000600161fffff21560075760805114601257600956",
                "nonce" : "0x00",
                "storage" : {
                    "0x00" : "0xc001f00d"
                }
            },
            "0x2adc25665018aa1fe0e6bc666dac8fc2697ff9ba" : {
                "balance" : "0x4563918244f4af2d",
                "code" : "",
                "nonce" : "0x00",
                "storage" : {
                }
            },
            "0xa94f5374fce5edbc8e2a8697c15331677e6ebf0b" : {
                "balance" : "0x0de0b6b3a761ca33",
                "code" : "",
                "nonce" : "0x01",
                "storage" : {
                }
            }
        },
        "pre" : {
            "0x095e7baea6a6c7c4c2dfeb977efac326af552d87" : {
                "balance" : "0x01312d00",
                "code" : "0x601b565b6000555b005b630badf00d6003565b63c001f00d6003565b7319e7e376e7c213b7e7e7e46cc70a5dd086daff2a7f22ae6da6b482f9b1b19b0b897c3fd43884180a1c5ee361e1107a1bc635649dda600052601b603f537f16433dce375ce6dc8151d3f0a22728bc4a1d9fd6ed39dfd18b4609331937367f6040527f306964c0cf5d74f04129fdc60b54d35b596dde1bf89ad92cb4123318f4c0e40060605260206080607f60006000600161fffff21560075760805114601257600956",
                "nonce" : "0x00",
                "storage" : {
                }
            },
            "0xa94f5374fce5edbc8e2a8697c15331677e6ebf0b" : {
                "balance" : "0x0de0b6b3a7640000",
                "code" : "",
                "nonce" : "0x00",
                "storage" : {
                }
            }
        }
    },
    "sec80_d0g0v0_Frontier" : {
        "blocks" : [
            {
                "blockHeader" : {
                    "bloom" : "0x00000000000000000000000000000000000000000000000000000000000000000000000000000000000000000000000000000000000000000000000000000000000000000000000000000000000000000000000000000000000000000000000000000000000000000000000000000000000000000000000000000000000000000000000000000000000000000000000000000000000000000000000000000000000000000000000000000000000000000000000000000000000000000000000000000000000000000000000000000000000000000000000000000000000000000000000000000000000000000000000000000000000000000000000000000000",
                    "coinbase" : "0x2adc25665018aa1fe0e6bc666dac8fc2697ff9ba",
                    "difficulty" : "0x020000",
                    "extraData" : "",
                    "gasLimit" : "0x989680",
                    "gasUsed" : "0xac99",
                    "hash" : "0x5e8333f97acfa63a08a350397b03b717d736286e395b5cd43a319f85b58e5ca1",
                    "mixHash" : "0x559208cefb18e58437d364a0b2f05d4d7ead1d58c8b436a0b6b7c4bc2c7c555c",
                    "nonce" : "0xcb1d50debe09abb0",
                    "number" : "0x01",
                    "parentHash" : "0x685e58a31539f57e51f4ae36f8e1559aa3d9f52b8a0dcdf5d545066111701abf",
                    "receiptTrie" : "0xc3b37600736562a81dcb791a832b14322f11c72bb5ef8aef4d6e5fb0b3441594",
                    "stateRoot" : "0x63d62d88e6f9f7340dda62f6a7c81caf6e7e7212edb0df45b622399da6c9178f",
                    "timestamp" : "0x03e8",
                    "transactionsTrie" : "0x138e622ff34e8a4bed7c2631ee946b094d23bd208e8285e710fc5fa254318627",
                    "uncleHash" : "0x1dcc4de8dec75d7aab85b567b6ccd41ad312451b948a7413f0a142fd40d49347"
                },
                "rlp" : "0xf90262f901f7a0685e58a31539f57e51f4ae36f8e1559aa3d9f52b8a0dcdf5d545066111701abfa01dcc4de8dec75d7aab85b567b6ccd41ad312451b948a7413f0a142fd40d49347942adc25665018aa1fe0e6bc666dac8fc2697ff9baa063d62d88e6f9f7340dda62f6a7c81caf6e7e7212edb0df45b622399da6c9178fa0138e622ff34e8a4bed7c2631ee946b094d23bd208e8285e710fc5fa254318627a0c3b37600736562a81dcb791a832b14322f11c72bb5ef8aef4d6e5fb0b3441594b901000000000000000000000000000000000000000000000000000000000000000000000000000000000000000000000000000000000000000000000000000000000000000000000000000000000000000000000000000000000000000000000000000000000000000000000000000000000000000000000000000000000000000000000000000000000000000000000000000000000000000000000000000000000000000000000000000000000000000000000000000000000000000000000000000000000000000000000000000000000000000000000000000000000000000000000000000000000000000000000000000000000000000000000000000000000083020000018398968082ac998203e880a0559208cefb18e58437d364a0b2f05d4d7ead1d58c8b436a0b6b7c4bc2c7c555c88cb1d50debe09abb0f865f86380018398968094095e7baea6a6c7c4c2dfeb977efac326af552d87830186a0801ca0c8c5469bcab2d89c9083cecdf26c9d3a9e40597d1d82744bc0e5e582f9dc48a4a0433eb07127e317522d4e08b89cd3824eee8bf1c75a2871db940e0c54d0dd09d2c0",
                "transactions" : [
                    {
                        "data" : "",
                        "gasLimit" : "0x989680",
                        "gasPrice" : "0x01",
                        "nonce" : "0x00",
                        "r" : "0xc8c5469bcab2d89c9083cecdf26c9d3a9e40597d1d82744bc0e5e582f9dc48a4",
                        "s" : "0x433eb07127e317522d4e08b89cd3824eee8bf1c75a2871db940e0c54d0dd09d2",
                        "to" : "0x095e7baea6a6c7c4c2dfeb977efac326af552d87",
                        "v" : "0x1c",
                        "value" : "0x0186a0"
                    }
                ],
                "uncleHeaders" : [
                ]
            }
        ],
        "genesisBlockHeader" : {
            "bloom" : "0x00000000000000000000000000000000000000000000000000000000000000000000000000000000000000000000000000000000000000000000000000000000000000000000000000000000000000000000000000000000000000000000000000000000000000000000000000000000000000000000000000000000000000000000000000000000000000000000000000000000000000000000000000000000000000000000000000000000000000000000000000000000000000000000000000000000000000000000000000000000000000000000000000000000000000000000000000000000000000000000000000000000000000000000000000000000",
            "coinbase" : "0x2adc25665018aa1fe0e6bc666dac8fc2697ff9ba",
            "difficulty" : "0x020000",
            "extraData" : "0x42",
            "gasLimit" : "0x989680",
            "gasUsed" : "0x00",
            "hash" : "0x685e58a31539f57e51f4ae36f8e1559aa3d9f52b8a0dcdf5d545066111701abf",
            "mixHash" : "0x56e81f171bcc55a6ff8345e692c0f86e5b48e01b996cadc001622fb5e363b421",
            "nonce" : "0x0102030405060708",
            "number" : "0x00",
            "parentHash" : "0x0000000000000000000000000000000000000000000000000000000000000000",
            "receiptTrie" : "0x56e81f171bcc55a6ff8345e692c0f86e5b48e01b996cadc001622fb5e363b421",
            "stateRoot" : "0x25a4db33e2f4a0ef769302c3d94763756cd510430bdb2419ca098625180e2846",
            "timestamp" : "0x03b6",
            "transactionsTrie" : "0x56e81f171bcc55a6ff8345e692c0f86e5b48e01b996cadc001622fb5e363b421",
            "uncleHash" : "0x1dcc4de8dec75d7aab85b567b6ccd41ad312451b948a7413f0a142fd40d49347"
        },
        "genesisRLP" : "0xf901faf901f5a00000000000000000000000000000000000000000000000000000000000000000a01dcc4de8dec75d7aab85b567b6ccd41ad312451b948a7413f0a142fd40d49347942adc25665018aa1fe0e6bc666dac8fc2697ff9baa025a4db33e2f4a0ef769302c3d94763756cd510430bdb2419ca098625180e2846a056e81f171bcc55a6ff8345e692c0f86e5b48e01b996cadc001622fb5e363b421a056e81f171bcc55a6ff8345e692c0f86e5b48e01b996cadc001622fb5e363b421b9010000000000000000000000000000000000000000000000000000000000000000000000000000000000000000000000000000000000000000000000000000000000000000000000000000000000000000000000000000000000000000000000000000000000000000000000000000000000000000000000000000000000000000000000000000000000000000000000000000000000000000000000000000000000000000000000000000000000000000000000000000000000000000000000000000000000000000000000000000000000000000000000000000000000000000000000000000000000000000000000000000000000000000000000000000000000830200008083989680808203b642a056e81f171bcc55a6ff8345e692c0f86e5b48e01b996cadc001622fb5e363b421880102030405060708c0c0",
        "lastblockhash" : "0x5e8333f97acfa63a08a350397b03b717d736286e395b5cd43a319f85b58e5ca1",
        "network" : "Frontier",
        "postState" : {
            "0x095e7baea6a6c7c4c2dfeb977efac326af552d87" : {
                "balance" : "0x0132b3a0",
                "code" : "0x601b565b6000555b005b630badf00d6003565b63c001f00d6003565b7319e7e376e7c213b7e7e7e46cc70a5dd086daff2a7f22ae6da6b482f9b1b19b0b897c3fd43884180a1c5ee361e1107a1bc635649dda600052601b603f537f16433dce375ce6dc8151d3f0a22728bc4a1d9fd6ed39dfd18b4609331937367f6040527f306964c0cf5d74f04129fdc60b54d35b596dde1bf89ad92cb4123318f4c0e40060605260206080607f60006000600161fffff21560075760805114601257600956",
                "nonce" : "0x00",
                "storage" : {
                    "0x00" : "0xc001f00d"
                }
            },
            "0x2adc25665018aa1fe0e6bc666dac8fc2697ff9ba" : {
                "balance" : "0x4563918244f4ac99",
                "code" : "",
                "nonce" : "0x00",
                "storage" : {
                }
            },
            "0xa94f5374fce5edbc8e2a8697c15331677e6ebf0b" : {
                "balance" : "0x0de0b6b3a761ccc7",
                "code" : "",
                "nonce" : "0x01",
                "storage" : {
                }
            }
        },
        "pre" : {
            "0x095e7baea6a6c7c4c2dfeb977efac326af552d87" : {
                "balance" : "0x01312d00",
                "code" : "0x601b565b6000555b005b630badf00d6003565b63c001f00d6003565b7319e7e376e7c213b7e7e7e46cc70a5dd086daff2a7f22ae6da6b482f9b1b19b0b897c3fd43884180a1c5ee361e1107a1bc635649dda600052601b603f537f16433dce375ce6dc8151d3f0a22728bc4a1d9fd6ed39dfd18b4609331937367f6040527f306964c0cf5d74f04129fdc60b54d35b596dde1bf89ad92cb4123318f4c0e40060605260206080607f60006000600161fffff21560075760805114601257600956",
                "nonce" : "0x00",
                "storage" : {
                }
            },
            "0xa94f5374fce5edbc8e2a8697c15331677e6ebf0b" : {
                "balance" : "0x0de0b6b3a7640000",
                "code" : "",
                "nonce" : "0x00",
                "storage" : {
                }
            }
        }
    },
    "sec80_d0g0v0_Homestead" : {
        "blocks" : [
            {
                "blockHeader" : {
                    "bloom" : "0x00000000000000000000000000000000000000000000000000000000000000000000000000000000000000000000000000000000000000000000000000000000000000000000000000000000000000000000000000000000000000000000000000000000000000000000000000000000000000000000000000000000000000000000000000000000000000000000000000000000000000000000000000000000000000000000000000000000000000000000000000000000000000000000000000000000000000000000000000000000000000000000000000000000000000000000000000000000000000000000000000000000000000000000000000000000",
                    "coinbase" : "0x2adc25665018aa1fe0e6bc666dac8fc2697ff9ba",
                    "difficulty" : "0x020000",
                    "extraData" : "",
                    "gasLimit" : "0x989680",
                    "gasUsed" : "0xac99",
                    "hash" : "0x577d0596af335012fd25378a50640195cffb5041136d5160075344efcda5007e",
                    "mixHash" : "0x8c0efd38521515aded91ae0ce8842e13ef6c6f9671487af40064f310c8b1a9d0",
                    "nonce" : "0x50b7899a05869180",
                    "number" : "0x01",
                    "parentHash" : "0x685e58a31539f57e51f4ae36f8e1559aa3d9f52b8a0dcdf5d545066111701abf",
                    "receiptTrie" : "0xc3b37600736562a81dcb791a832b14322f11c72bb5ef8aef4d6e5fb0b3441594",
                    "stateRoot" : "0x63d62d88e6f9f7340dda62f6a7c81caf6e7e7212edb0df45b622399da6c9178f",
                    "timestamp" : "0x03e8",
                    "transactionsTrie" : "0x138e622ff34e8a4bed7c2631ee946b094d23bd208e8285e710fc5fa254318627",
                    "uncleHash" : "0x1dcc4de8dec75d7aab85b567b6ccd41ad312451b948a7413f0a142fd40d49347"
                },
                "rlp" : "0xf90262f901f7a0685e58a31539f57e51f4ae36f8e1559aa3d9f52b8a0dcdf5d545066111701abfa01dcc4de8dec75d7aab85b567b6ccd41ad312451b948a7413f0a142fd40d49347942adc25665018aa1fe0e6bc666dac8fc2697ff9baa063d62d88e6f9f7340dda62f6a7c81caf6e7e7212edb0df45b622399da6c9178fa0138e622ff34e8a4bed7c2631ee946b094d23bd208e8285e710fc5fa254318627a0c3b37600736562a81dcb791a832b14322f11c72bb5ef8aef4d6e5fb0b3441594b901000000000000000000000000000000000000000000000000000000000000000000000000000000000000000000000000000000000000000000000000000000000000000000000000000000000000000000000000000000000000000000000000000000000000000000000000000000000000000000000000000000000000000000000000000000000000000000000000000000000000000000000000000000000000000000000000000000000000000000000000000000000000000000000000000000000000000000000000000000000000000000000000000000000000000000000000000000000000000000000000000000000000000000000000000000000083020000018398968082ac998203e880a08c0efd38521515aded91ae0ce8842e13ef6c6f9671487af40064f310c8b1a9d08850b7899a05869180f865f86380018398968094095e7baea6a6c7c4c2dfeb977efac326af552d87830186a0801ca0c8c5469bcab2d89c9083cecdf26c9d3a9e40597d1d82744bc0e5e582f9dc48a4a0433eb07127e317522d4e08b89cd3824eee8bf1c75a2871db940e0c54d0dd09d2c0",
                "transactions" : [
                    {
                        "data" : "",
                        "gasLimit" : "0x989680",
                        "gasPrice" : "0x01",
                        "nonce" : "0x00",
                        "r" : "0xc8c5469bcab2d89c9083cecdf26c9d3a9e40597d1d82744bc0e5e582f9dc48a4",
                        "s" : "0x433eb07127e317522d4e08b89cd3824eee8bf1c75a2871db940e0c54d0dd09d2",
                        "to" : "0x095e7baea6a6c7c4c2dfeb977efac326af552d87",
                        "v" : "0x1c",
                        "value" : "0x0186a0"
                    }
                ],
                "uncleHeaders" : [
                ]
            }
        ],
        "genesisBlockHeader" : {
            "bloom" : "0x00000000000000000000000000000000000000000000000000000000000000000000000000000000000000000000000000000000000000000000000000000000000000000000000000000000000000000000000000000000000000000000000000000000000000000000000000000000000000000000000000000000000000000000000000000000000000000000000000000000000000000000000000000000000000000000000000000000000000000000000000000000000000000000000000000000000000000000000000000000000000000000000000000000000000000000000000000000000000000000000000000000000000000000000000000000",
            "coinbase" : "0x2adc25665018aa1fe0e6bc666dac8fc2697ff9ba",
            "difficulty" : "0x020000",
            "extraData" : "0x42",
            "gasLimit" : "0x989680",
            "gasUsed" : "0x00",
            "hash" : "0x685e58a31539f57e51f4ae36f8e1559aa3d9f52b8a0dcdf5d545066111701abf",
            "mixHash" : "0x56e81f171bcc55a6ff8345e692c0f86e5b48e01b996cadc001622fb5e363b421",
            "nonce" : "0x0102030405060708",
            "number" : "0x00",
            "parentHash" : "0x0000000000000000000000000000000000000000000000000000000000000000",
            "receiptTrie" : "0x56e81f171bcc55a6ff8345e692c0f86e5b48e01b996cadc001622fb5e363b421",
            "stateRoot" : "0x25a4db33e2f4a0ef769302c3d94763756cd510430bdb2419ca098625180e2846",
            "timestamp" : "0x03b6",
            "transactionsTrie" : "0x56e81f171bcc55a6ff8345e692c0f86e5b48e01b996cadc001622fb5e363b421",
            "uncleHash" : "0x1dcc4de8dec75d7aab85b567b6ccd41ad312451b948a7413f0a142fd40d49347"
        },
        "genesisRLP" : "0xf901faf901f5a00000000000000000000000000000000000000000000000000000000000000000a01dcc4de8dec75d7aab85b567b6ccd41ad312451b948a7413f0a142fd40d49347942adc25665018aa1fe0e6bc666dac8fc2697ff9baa025a4db33e2f4a0ef769302c3d94763756cd510430bdb2419ca098625180e2846a056e81f171bcc55a6ff8345e692c0f86e5b48e01b996cadc001622fb5e363b421a056e81f171bcc55a6ff8345e692c0f86e5b48e01b996cadc001622fb5e363b421b9010000000000000000000000000000000000000000000000000000000000000000000000000000000000000000000000000000000000000000000000000000000000000000000000000000000000000000000000000000000000000000000000000000000000000000000000000000000000000000000000000000000000000000000000000000000000000000000000000000000000000000000000000000000000000000000000000000000000000000000000000000000000000000000000000000000000000000000000000000000000000000000000000000000000000000000000000000000000000000000000000000000000000000000000000000000000830200008083989680808203b642a056e81f171bcc55a6ff8345e692c0f86e5b48e01b996cadc001622fb5e363b421880102030405060708c0c0",
        "lastblockhash" : "0x577d0596af335012fd25378a50640195cffb5041136d5160075344efcda5007e",
        "network" : "Homestead",
        "postState" : {
            "0x095e7baea6a6c7c4c2dfeb977efac326af552d87" : {
                "balance" : "0x0132b3a0",
                "code" : "0x601b565b6000555b005b630badf00d6003565b63c001f00d6003565b7319e7e376e7c213b7e7e7e46cc70a5dd086daff2a7f22ae6da6b482f9b1b19b0b897c3fd43884180a1c5ee361e1107a1bc635649dda600052601b603f537f16433dce375ce6dc8151d3f0a22728bc4a1d9fd6ed39dfd18b4609331937367f6040527f306964c0cf5d74f04129fdc60b54d35b596dde1bf89ad92cb4123318f4c0e40060605260206080607f60006000600161fffff21560075760805114601257600956",
                "nonce" : "0x00",
                "storage" : {
                    "0x00" : "0xc001f00d"
                }
            },
            "0x2adc25665018aa1fe0e6bc666dac8fc2697ff9ba" : {
                "balance" : "0x4563918244f4ac99",
                "code" : "",
                "nonce" : "0x00",
                "storage" : {
                }
            },
            "0xa94f5374fce5edbc8e2a8697c15331677e6ebf0b" : {
                "balance" : "0x0de0b6b3a761ccc7",
                "code" : "",
                "nonce" : "0x01",
                "storage" : {
                }
            }
        },
        "pre" : {
            "0x095e7baea6a6c7c4c2dfeb977efac326af552d87" : {
                "balance" : "0x01312d00",
                "code" : "0x601b565b6000555b005b630badf00d6003565b63c001f00d6003565b7319e7e376e7c213b7e7e7e46cc70a5dd086daff2a7f22ae6da6b482f9b1b19b0b897c3fd43884180a1c5ee361e1107a1bc635649dda600052601b603f537f16433dce375ce6dc8151d3f0a22728bc4a1d9fd6ed39dfd18b4609331937367f6040527f306964c0cf5d74f04129fdc60b54d35b596dde1bf89ad92cb4123318f4c0e40060605260206080607f60006000600161fffff21560075760805114601257600956",
                "nonce" : "0x00",
                "storage" : {
                }
            },
            "0xa94f5374fce5edbc8e2a8697c15331677e6ebf0b" : {
                "balance" : "0x0de0b6b3a7640000",
                "code" : "",
                "nonce" : "0x00",
                "storage" : {
                }
            }
        }
    },
    "sec80_d0g0v0_Metropolis" : {
        "blocks" : [
            {
                "blockHeader" : {
                    "bloom" : "0x00000000000000000000000000000000000000000000000000000000000000000000000000000000000000000000000000000000000000000000000000000000000000000000000000000000000000000000000000000000000000000000000000000000000000000000000000000000000000000000000000000000000000000000000000000000000000000000000000000000000000000000000000000000000000000000000000000000000000000000000000000000000000000000000000000000000000000000000000000000000000000000000000000000000000000000000000000000000000000000000000000000000000000000000000000000",
                    "coinbase" : "0x2adc25665018aa1fe0e6bc666dac8fc2697ff9ba",
                    "difficulty" : "0x020000",
                    "extraData" : "",
                    "gasLimit" : "0x989680",
                    "gasUsed" : "0xaf2d",
                    "hash" : "0x88255ad735f87ca616739256b0f1da20a678859d21baf1a7bb30987d74227d25",
                    "mixHash" : "0x2d7f2aaabd34772171dc6047fba1bd7737a3ac08976a7550d81a39ea2374c1d3",
                    "nonce" : "0x3f5573db796fe54f",
                    "number" : "0x01",
                    "parentHash" : "0x685e58a31539f57e51f4ae36f8e1559aa3d9f52b8a0dcdf5d545066111701abf",
                    "receiptTrie" : "0x4cac10ec0c8464c170c511aef762409f5d0231d0338fa7a303220187cb2b2a5b",
                    "stateRoot" : "0x476787722b03dcc6f223683f361bf69cf5a4ece6711e7e71b297172b495b2efc",
                    "timestamp" : "0x03e8",
                    "transactionsTrie" : "0x138e622ff34e8a4bed7c2631ee946b094d23bd208e8285e710fc5fa254318627",
                    "uncleHash" : "0x1dcc4de8dec75d7aab85b567b6ccd41ad312451b948a7413f0a142fd40d49347"
                },
                "rlp" : "0xf90262f901f7a0685e58a31539f57e51f4ae36f8e1559aa3d9f52b8a0dcdf5d545066111701abfa01dcc4de8dec75d7aab85b567b6ccd41ad312451b948a7413f0a142fd40d49347942adc25665018aa1fe0e6bc666dac8fc2697ff9baa0476787722b03dcc6f223683f361bf69cf5a4ece6711e7e71b297172b495b2efca0138e622ff34e8a4bed7c2631ee946b094d23bd208e8285e710fc5fa254318627a04cac10ec0c8464c170c511aef762409f5d0231d0338fa7a303220187cb2b2a5bb901000000000000000000000000000000000000000000000000000000000000000000000000000000000000000000000000000000000000000000000000000000000000000000000000000000000000000000000000000000000000000000000000000000000000000000000000000000000000000000000000000000000000000000000000000000000000000000000000000000000000000000000000000000000000000000000000000000000000000000000000000000000000000000000000000000000000000000000000000000000000000000000000000000000000000000000000000000000000000000000000000000000000000000000000000000000083020000018398968082af2d8203e880a02d7f2aaabd34772171dc6047fba1bd7737a3ac08976a7550d81a39ea2374c1d3883f5573db796fe54ff865f86380018398968094095e7baea6a6c7c4c2dfeb977efac326af552d87830186a0801ca0c8c5469bcab2d89c9083cecdf26c9d3a9e40597d1d82744bc0e5e582f9dc48a4a0433eb07127e317522d4e08b89cd3824eee8bf1c75a2871db940e0c54d0dd09d2c0",
                "transactions" : [
                    {
                        "data" : "",
                        "gasLimit" : "0x989680",
                        "gasPrice" : "0x01",
                        "nonce" : "0x00",
                        "r" : "0xc8c5469bcab2d89c9083cecdf26c9d3a9e40597d1d82744bc0e5e582f9dc48a4",
                        "s" : "0x433eb07127e317522d4e08b89cd3824eee8bf1c75a2871db940e0c54d0dd09d2",
                        "to" : "0x095e7baea6a6c7c4c2dfeb977efac326af552d87",
                        "v" : "0x1c",
                        "value" : "0x0186a0"
                    }
                ],
                "uncleHeaders" : [
                ]
            }
        ],
        "genesisBlockHeader" : {
            "bloom" : "0x00000000000000000000000000000000000000000000000000000000000000000000000000000000000000000000000000000000000000000000000000000000000000000000000000000000000000000000000000000000000000000000000000000000000000000000000000000000000000000000000000000000000000000000000000000000000000000000000000000000000000000000000000000000000000000000000000000000000000000000000000000000000000000000000000000000000000000000000000000000000000000000000000000000000000000000000000000000000000000000000000000000000000000000000000000000",
            "coinbase" : "0x2adc25665018aa1fe0e6bc666dac8fc2697ff9ba",
            "difficulty" : "0x020000",
            "extraData" : "0x42",
            "gasLimit" : "0x989680",
            "gasUsed" : "0x00",
            "hash" : "0x685e58a31539f57e51f4ae36f8e1559aa3d9f52b8a0dcdf5d545066111701abf",
            "mixHash" : "0x56e81f171bcc55a6ff8345e692c0f86e5b48e01b996cadc001622fb5e363b421",
            "nonce" : "0x0102030405060708",
            "number" : "0x00",
            "parentHash" : "0x0000000000000000000000000000000000000000000000000000000000000000",
            "receiptTrie" : "0x56e81f171bcc55a6ff8345e692c0f86e5b48e01b996cadc001622fb5e363b421",
            "stateRoot" : "0x25a4db33e2f4a0ef769302c3d94763756cd510430bdb2419ca098625180e2846",
            "timestamp" : "0x03b6",
            "transactionsTrie" : "0x56e81f171bcc55a6ff8345e692c0f86e5b48e01b996cadc001622fb5e363b421",
            "uncleHash" : "0x1dcc4de8dec75d7aab85b567b6ccd41ad312451b948a7413f0a142fd40d49347"
        },
        "genesisRLP" : "0xf901faf901f5a00000000000000000000000000000000000000000000000000000000000000000a01dcc4de8dec75d7aab85b567b6ccd41ad312451b948a7413f0a142fd40d49347942adc25665018aa1fe0e6bc666dac8fc2697ff9baa025a4db33e2f4a0ef769302c3d94763756cd510430bdb2419ca098625180e2846a056e81f171bcc55a6ff8345e692c0f86e5b48e01b996cadc001622fb5e363b421a056e81f171bcc55a6ff8345e692c0f86e5b48e01b996cadc001622fb5e363b421b9010000000000000000000000000000000000000000000000000000000000000000000000000000000000000000000000000000000000000000000000000000000000000000000000000000000000000000000000000000000000000000000000000000000000000000000000000000000000000000000000000000000000000000000000000000000000000000000000000000000000000000000000000000000000000000000000000000000000000000000000000000000000000000000000000000000000000000000000000000000000000000000000000000000000000000000000000000000000000000000000000000000000000000000000000000000000830200008083989680808203b642a056e81f171bcc55a6ff8345e692c0f86e5b48e01b996cadc001622fb5e363b421880102030405060708c0c0",
        "lastblockhash" : "0x88255ad735f87ca616739256b0f1da20a678859d21baf1a7bb30987d74227d25",
        "network" : "Metropolis",
        "postState" : {
            "0x00000000000000000000000000000000000000f0" : {
                "balance" : "0x00",
                "code" : "",
                "nonce" : "0x00",
                "storage" : {
                }
            },
            "0x095e7baea6a6c7c4c2dfeb977efac326af552d87" : {
                "balance" : "0x0132b3a0",
                "code" : "0x601b565b6000555b005b630badf00d6003565b63c001f00d6003565b7319e7e376e7c213b7e7e7e46cc70a5dd086daff2a7f22ae6da6b482f9b1b19b0b897c3fd43884180a1c5ee361e1107a1bc635649dda600052601b603f537f16433dce375ce6dc8151d3f0a22728bc4a1d9fd6ed39dfd18b4609331937367f6040527f306964c0cf5d74f04129fdc60b54d35b596dde1bf89ad92cb4123318f4c0e40060605260206080607f60006000600161fffff21560075760805114601257600956",
                "nonce" : "0x00",
                "storage" : {
                    "0x00" : "0xc001f00d"
                }
            },
            "0x2adc25665018aa1fe0e6bc666dac8fc2697ff9ba" : {
                "balance" : "0x4563918244f4af2d",
                "code" : "",
                "nonce" : "0x00",
                "storage" : {
                }
            },
            "0xa94f5374fce5edbc8e2a8697c15331677e6ebf0b" : {
                "balance" : "0x0de0b6b3a761ca33",
                "code" : "",
                "nonce" : "0x01",
                "storage" : {
                }
            }
        },
        "pre" : {
            "0x095e7baea6a6c7c4c2dfeb977efac326af552d87" : {
                "balance" : "0x01312d00",
                "code" : "0x601b565b6000555b005b630badf00d6003565b63c001f00d6003565b7319e7e376e7c213b7e7e7e46cc70a5dd086daff2a7f22ae6da6b482f9b1b19b0b897c3fd43884180a1c5ee361e1107a1bc635649dda600052601b603f537f16433dce375ce6dc8151d3f0a22728bc4a1d9fd6ed39dfd18b4609331937367f6040527f306964c0cf5d74f04129fdc60b54d35b596dde1bf89ad92cb4123318f4c0e40060605260206080607f60006000600161fffff21560075760805114601257600956",
                "nonce" : "0x00",
                "storage" : {
                }
            },
            "0xa94f5374fce5edbc8e2a8697c15331677e6ebf0b" : {
                "balance" : "0x0de0b6b3a7640000",
                "code" : "",
                "nonce" : "0x00",
                "storage" : {
                }
            }
        }
    }
}